:020000040000FA
:10000000580D0020D5000000EF0000006133000013
:1000100000000000000000000000000000000000E0
:10002000000000000000000000000000F3000000DD
:100030000000000000000000F5000000F7000000D4
:10004000553800005F380000693800007338000040
:100050007D38000087380000913800009B38000090
:10006000A5380000AF380000B9380000C3380000E0
:10007000CD380000D7380000E1380000EB38000030
:10008000F5380000FF38000009390000133900007E
:100090001D39000027390000313900003B390000CC
:1000A000453900004F39000059390000633900001C
:1000B0006D39000077390000813900008B3900006C
:1000C0000348854600F01AFD004800477D72000095
:1000D000580D002009480A4A002100A1814200D998
:1000E0000244084802600848804708480047FEE785
:1000F000FEE7FEE7FEE7FEE7FEE700000000002067
:100100000000000008ED00E001530000C100000005
:1001100030B50B46014600202022012409E00D469F
:10012000D5409D4205D31D469540491B2546954027
:1001300040191546521E002DF1DC30BD70B500246B
:100140002546002801DA01244042002901DA012570
:100150004942FFF7DDFFAC4200D04042002C00D006
:10016000494270BD03460B439B0703D009E008C911
:10017000121F08C0042AFAD203E00B780370401C57
:10018000491C521EF9D27047D2B201E00270401CE5
:10019000491EFBD270470022F6E710B513460A4607
:1001A00004461946FFF7F0FF204610BD30B505465E
:1001B0002A460B4610781C78521C5B1C002801D084
:1001C000A042F7D0002C03D0002802D06D1CEFE72E
:1001D000284630BD421C0178401C0029FBD1801A02
:1001E000704703460A780270401C491C002AF9D166
:1001F00018467047F8B502464A40D40F42004B00FB
:1002000052085B089A4202D20246084611464A004A
:1002100023D0C30D4A00DDB2120EAD1A202D35DAFF
:1002200049020126490AF6058A19002C00D05242DB
:1002300020214F1B1146B9402A411018C20D9A4285
:1002400021D0002C17D0012D08DCDA05801AD20F3E
:100250008019D207DBB200F083FBF8BDDA05801A03
:10026000012340001B06C01880185A428018CA0F8C
:100270001043490007E04908C2071143DA05801A14
:1002800080194008801800F063FBF8BD610001226E
:10029000511A001BF7E70122D2075140AAE70122B9
:1002A000D2075040A6E7024670B54A40D30FDB079D
:1002B00040002DD04A002AD0010E140E0002120276
:1002C0000919400A520A8418E50104465443000AF9
:1002D000120A2E045043A4194219200CC543AA182F
:1002E000120C0125AD03521C521912047F3924044B
:1002F00000D0521C104301D44000491EC2B20C066B
:10030000C0092018401C4008802A02D003E00020C9
:1003100070BD40084000002900DA0020184370BD7D
:1003200070B502464A40D50F40004A00ED0740082C
:100330005208002814D0002A12D0C40DD30D410257
:100340000120C0055202490A520AE41A091812187B
:100350007D34914201D3641C00E04900002C01DA95
:10036000002070BD0023914201D3891A0343400845
:1003700049000028F7D100290AD0914202D1012179
:10038000C90705E0914201D2012101E00121C943E1
:10039000E005C018401900F0DBFA70BDF0B5074663
:1003A0000846584087B0C00F049048000E465900D8
:1003B00040084908BC1A884105D2384631461E46D5
:1003C00017460B4602465800400810434CD0300DEB
:1003D000039040055900400D490D0590401A0290C8
:1003E000402872DA18030121000B09050843019027
:1003F00004980092002805D00199524200208841BB
:1004000000920190029840210A1A0199009800F088
:100410006BFA05460C466B4607CB00F086FAC0190E
:100420007141039A0E0D0023D71756401A467A40A1
:10043000164344D0049A002A2DD0029A012A039A26
:1004400015DC1205C01A914101263605001C7141C8
:10045000D20F059ED2070093019202962A462346A8
:1004600000F0C4FA07B0F0BD38463146FAE7160589
:10047000224A0F46B218C01AB74101210905001CD3
:100480004F4100187F41114618187941E20F10437F
:100490006D19644113E0E2076D0815436408C20753
:1004A0001443039A01261205C01A91413605001C17
:1004B0007141CE07400830434908C01851412A46CF
:1004C000234600F086FACDE7FFE7049801224000BA
:1004D000C117121A00238B4104983146C417381AE9
:1004E000A141EEE730B40124E407634030BC55E796
:1004F00030B40124E407614030BC4FE70000E0FF66
:10050000F0B51FB488B00B990998002448400999A8
:10051000C00F490049080991C0070B990090490094
:1005200049080B9109990898A64608431CD00B99D5
:100530000A98084318D0099801244000420D480049
:10054000410D099824050003000B204309900B98E6
:100550000003000B20430B9050181C494018002248
:1005600001901446104605E0002001460DB0F0BD94
:10057000032801DA034600E003239C46C11A0AAEB1
:100580000AE05F0008ADED5B4F00F75B7D4300279D
:10059000AA187C41491C5B1E6145F2DD410004AB99
:1005A0005A522104120C0A43240C401C0828DFDB99
:1005B000019802900099704601910090059B049A61
:1005C0000799069800F012FAD0E700000DFCFFFF33
:1005D000F0B50C465C4085B0E40FE40703944C0092
:1005E00000266408590094464908024602962243B0
:1005F00021D062460A431ED06200570D4A000E0306
:100600002303550D012402462C492405781B1B0B9E
:10061000360B401823432643614600901C46501A6F
:10062000B44103D30098401C009002E09218009857
:100630005B41002803DA0020014605B0F0BD002030
:10064000012109050746864611E064461D46141B34
:10065000B54106D36546521BB341744607430C436C
:10066000A646CD0740084908284392185B41054635
:100670000D43EAD11046184313D060461946504046
:100680007140084306D06046101AB34106D20122D9
:10069000002306E000220123DB0702E00122D2430F
:1006A0005310009874460105381C6141029C039D5B
:1006B0000019694100F08DF9BFE70000FD0300005B
:1006C000C217C10F504010B54018CA079623002129
:1006D00000F046F910BD10B500229623114600F037
:1006E0003FF910BD0EB5C217C10F5040CA074018E0
:1006F0000021054B0293019200910A460B4600F03F
:1007000075F903B000BD000033040000C20F4100C2
:1007100040020123400ADB05D207090EC0187F29D9
:1007200001DA00207047962903DC9623591AC84045
:1007300001E096398840002AF4D0404270474100D9
:1007400040020122400AD205090E80187F2901DAF1
:1007500000207047962903DC9622511AC840704742
:10076000963988407047000070B5CD0F4A000903E4
:100770000123090B1B0519430B4BED070024520DF8
:100780009A4201DA002070BD074B34339A4203DCF1
:100790009A1A00F0B9F802E00449511888402C4335
:1007A000F1D0404270BD0000FF030000CDFBFFFF11
:1007B000C20FD207400040080BD0C10D0723DB0158
:1007C000C91840020905400A1143C20840071143F5
:1007D000704700200146704710B5002904DB012452
:1007E000E40740428C412146002B04DB1C460123D8
:1007F000DB075242A3418B4200D1824210BD000070
:1008000010B5002904DB0124E40740428C41214655
:10081000002B04DB1C460123DB075242A341994213
:1008200000D1904210BD0000CB0FDB07490010B58E
:10083000490802460A4307D00A0D07240903E401C8
:10084000090B121B002A01DC002010BDC900440F57
:100850000C43C100E018D205801800F079F810BDF3
:100860000122D207002800DB101A002900DB511AF0
:10087000814270470122D207002800DB101A0029AC
:1008800000DB511A88427047F0B51FB406460020BD
:1008900082B005464024019100901BE00199224658
:1008A0000F46304600F030F8049A059B801A9941B3
:1008B00010D310461946224600F016F8361A8F411A
:1008C0000197224601200021009F00F00DF8381802
:1008D0004D4100902046641E0028DFDC019B0098FB
:1008E0002946324607B0F0BD10B5202A04DB014688
:1008F000203A9140002010BD914020239C1A0346CD
:10090000E3401943904010BD10B5202A04DB08468F
:10091000203AD040002110BD0B46D340D0402024C7
:10092000A21A91400843194610BD10B5202A06DBD3
:10093000CB170846203A1041C1170B4306E00B467F
:100940001341D0402024A21A91400843194610BDFB
:10095000002904DA401C490001D1400840007047DA
:1009600070B40024050C05D11024000402D1002924
:1009700021D01124050E01D100020834050F01D148
:100980000001241D850F01D18000A41C002801DB7B
:100990004000641C002908D020252E1B0D46F54080
:1009A000A14000D001212943084301061B1B000A76
:1009B000DB1D02D5002070BC7047DB0518188018BD
:1009C0000029F8DA401C4900F5D170BC400840000D
:1009D000704710B5002B08DA0024401C61419218C2
:1009E0005B411A4301D14008400010BDF0B51FB46F
:1009F00082B005460C0003D0084605F09BFD02E0DE
:100A000005F098FD20300246009021462846FFF769
:100A10006BFF049B059A04460F4618431143084395
:100A200014D0184610431BD0009840210A1A1846CB
:100A30000599FFF769FF05460E46009A0599049847
:100A4000FFF752FF084305D0012004E02046394655
:100A500007B0F0BD0020C11705430E432C433743B8
:100A600000990E986305401A7905E40A00220C43A8
:100A7000FD0A0A3002D500200146E9E701051019F8
:100A800069410C9C0D9D00196941FFF7A2FFDFE74A
:100A900070B54B005B0803430BD04B005C0D002688
:100AA00033466542B341D417AD1AA34102DB00209F
:100AB000014670BD12053018514170BD4A0009034E
:100AC0000123090B1B0519430A4B10B5520D9A421D
:100AD00002DA0020014610BD064B34339A4203DC93
:100AE0009A1AFFF711FF10BD034BD218FFF7FCFE57
:100AF00010BD0000FF030000CDFBFFFF064C0125E9
:100B0000064E05E0E36807CC2B430C3C98471034B5
:100B1000B442F7D3FFF7D8FAB0E80000D0E80000FD
:100B2000FEB500231A461B1A8A4103DB002001464A
:100B300003B0F0BD4A000D0301212D0B0905520D34
:100B40000D43D10702D100186D41521E5110FF31E3
:100B5000FF310131002704463E4638460097019197
:100B60000246012100200905FFF7CEFEC31971419D
:100B7000F818324684468E464A4161462846611A34
:100B8000904104D36046241A954176461F462419A5
:100B900000986D41401C00903428E1DDF919304681
:100BA0007041091BA84103D20022D243134601E041
:100BB0000022134601980105381C7141FFF709FF17
:100BC000B6E770B58C180578401C6B075B0F01D138
:100BD0000378401C2A1106D10278401C03E00678F5
:100BE0000E70401C491C5B1EF9D12B0705D4002355
:100BF000521E0DD40B70491CFAE70378401CCB1A27
:100C0000921C03E01D780D70491C5B1C521EF9D527
:100C1000A142D8D3002070BD10B594B0052112A810
:100C200006F0F1F9062110A806F0EDF918210AA83E
:100C300006F0E9F90621434806F0E5F9052108A880
:100C400006F0E1F9052106A806F0DDF9052104A862
:100C500006F0D9F9052102A806F0D5F90521684664
:100C600006F0D1F901211C2004F066FA00210846A3
:100C700002F0F8F90121002002F0F4F903218020AC
:100C800002F0F0F90021802002F0ECF9022180202E
:100C900002F0E8F90121102004F04EFA002802D0F9
:100CA000012014B010BD00F0EDFC2748006840089A
:100CB0004000401C2449086008460068022188431F
:100CC00021490860012006F0DDF9012110A8017218
:100CD00000214172022181720321C172002101733E
:100CE00012A800F071FD0021084600F0AFFB0121C1
:100CF000084600F0ABFB0D21022000F0A7FB0A2103
:100D0000032000F0A3FB0C21042000F09FFB012234
:100D10000321182001F0FAFB00F0BEFC012110A80D
:100D200041700A480B900AA910A800F055FB052451
:100D30000122214612A800F065FC00F08DFD002084
:100D4000AFE70000150000200024004079130000E8
:100D50007CB500240521002002F09AF9FF202D30F7
:100D600006F0ECF90521002002F05EF8FF202D309E
:100D700006F0E4F900BF6F4802F090FED7E006F0FD
:100D80006DFA642006F0DAF96B480088C8386B49C0
:100D90000988884260DA6948018867480088C83055
:100DA000814259DA06F05AFA642006F0C7F962481F
:100DB0000088C8386149098888427ADA5F48018822
:100DC0005D480088C8308142F7DA01F093FF5C4843
:100DD000006801F0ADFEA1006A4650505848006816
:100DE00006F0D8F90546A0006A4611582846FFF7D4
:100DF00001FAA1006A465050601CC4B2022C7CD19A
:100E000000245048006801F0F9FC00280ED100BF12
:100E10000AE0A2006B46995862004A4B1B68D01842
:100E200005F094FA601CC4B2022CF2DB052100200C
:100E300002F02EF9FF202D3006F080F90521002068
:100E400001F0F2FFFF202D3006F078F9002002F0CB
:100E500025FE02F08DFA6BE03B480088C838374920
:100E60000988884249DA3548018837480088C830FF
:100E7000814242DA06F0F2F9642006F05FF9324866
:100E80000088C8382D490988884236DA2B480188FD
:100E90002D480088C83081422FDA2A48006801F0C6
:100EA000ADFC002813D12948009029480190002466
:100EB0000BE022E0A2006B4699586200214B1B68B0
:100EC000D01805F043FA601CC4B2022CF2DB0521F5
:100ED000002002F0DDF8FF202D3006F02FF905216B
:100EE000002001F0A1FFFF202D3006F027F900209F
:100EF00002F0D4FD02F03CFA1AE001F0FBFE1048CB
:100F0000006801F015FEA1006A4650500C480068C8
:100F100006F040F90546A0006A4611582846FFF73A
:100F200069F9A1006A465050C82006F007F926E783
:100F300000BF7CBD1FF800000E000020080000204C
:100F4000E0050020780000200C000020333311421F
:100F500066662642F1B5A6B000208E492391229004
:100F60002698FFF725FC2191209021992098FFF7E2
:100F7000FBFB1F901F998900874A5058FFF718FC08
:100F80001D911C900022854B1D991C98FFF720FB9A
:100F90001D911C9021992098FFF7E6FB401C1B90A7
:100FA0001B9989007C4A5058FFF702FC1991189050
:100FB00000227A4B19991898FFF70AFB199118909B
:100FC0007748784A179216901F994A008818FFF7B9
:100FD00089FB754A754B0B910A90FFF789FA00223D
:100FE000734B0D910C90FFF78BFA159114901B9990
:100FF0004A008818FFF776FB6B4A6C4B0B910A90FE
:10100000FFF776FA00226A4B0D910C90FFF778FA01
:1010100013911290159B149A17991698FFF762FA7C
:101020000D910C901F98FFF75DFB624A624B019196
:101030000090FFF7B3F90022604B0391029006F095
:1010400019FA5C4A5C4B0791069023992298FFF7A6
:10105000A5F90022594B0391029006F00BFA059175
:101060000490079B069AFFF73DFA02460B4609914A
:1010700008901D991C98FFF7ABFA0B910A900D9BF5
:101080000C9AFFF7A5FA04460D46139B129A17997E
:101090001698FFF727FA0D910C901B98FFF722FB8B
:1010A000444A454B01910090FFF778F90022434BE9
:1010B0000391029006F0DEF93E4A3F4B07910690FD
:1010C00023992298FFF76AF900223C4B0391029082
:1010D00006F0D0F905910490079B069AFFF702FAF3
:1010E00002460B460991089019991898FFF770FA73
:1010F0000B910A900D9B0C9AFFF76AFA25912490A8
:1011000022462B4625992498FFF7ECF94A0052080D
:101110000D920C900022264B0D99FFF759FA119170
:1011200010901F98FFF7DEFA0B910A90219B209AEE
:10113000FFF7DEF900221E4B0D910C90FFF7E0F94E
:101140000F910E9020462946259B249AFFF758FBC5
:101150000ED20F9B0E9A11991098FFF7D1F92246E3
:101160002B460D910C90FFF7C3F90F4606460DE094
:101170000F9B0E9A11991098FFF7C2F922462B4641
:101180000D910C90FFF70AF90F4606463046394696
:1011900027B0F0BD000041405004002080842E4163
:1011A000436DD92DCD2E2B406957148B0ABF1940A2
:1011B00000002440666666666612714000001040BA
:1011C00010B503F03DF901F051FC0621002001F0BB
:1011D0005FFF0521802001F05BFF0721002001F067
:1011E00057FF0421802001F053FF0621C02001F0A9
:1011F0001BFE0521002001F04BFFFF202D3005F0E4
:101200009DFF0521002001F00FFEFF202D3005F08D
:1012100095FF7D20C00005F091FF04F01DFDFFF754
:10122000FBFC02F091FC02F01FFA03F07FFA04F0DD
:10123000AFFA04F019FB00BF01220C212A4801F08B
:1012400047FA0028F8D102F093F828A006F056FEDD
:1012500006F004F8142005F071FF05F0FFFF1420DC
:1012600005F06CFF0D21802001F00CFE012839D122
:1012700026480088C83826490988884232DA244836
:10128000018822480088C83081422BDA1E2005F0F0
:1012900055FF0D21802001F0F5FD012822D11B48CA
:1012A0000088C8381A49098888421BDA184801881A
:1012B00016480088C830814214DA0521002001F068
:1012C000E7FEFF202D3005F039FF0521002001F059
:1012D000ABFDFF202D3005F031FFFFF739FD0DA0EC
:1012E00006F00CFE10BD00008D2500004149525F44
:1012F000436865636B5F56312E3020323032302DBB
:10130000362D313520090D0A000000000C000020A8
:10131000080000202D2D2D3E2841446A7573745F0E
:101320004E5443290D0A0000FEB50746002401E093
:10133000601CC4B2E0000D4A11583846FFF790FA1D
:10134000F6D26000401E80000849085802900298BA
:10135000FFF72EFA0546064A064BFFF7C3F8019140
:101360000090FFF761FA02900298FEBD8000002015
:101370009A9999999999C93F10B500210B4800F0A5
:1013800097F901210A4800F093F90221094800F079
:101390008FF90321084800F08BF90421074800F079
:1013A00087F901200649487010BD000004000020A4
:1013B0000600002070000020080000200A00002025
:1013C00015000020034880680121C90388430149B2
:1013D00088607047002400404279012A05D14A699B
:1013E000002A02D0184B4A695A610278012A05D1B5
:1013F0000A68002A02D0144B0A681A604278012A4F
:1014000005D14A68002A02D00F4B4A685A60827898
:10141000012A05D18A68002A02D00B4B8A689A609B
:10142000C278012A05D1CA68002A02D0064BCA68D0
:10143000DA600279012A05D10A69002A02D0024B3A
:101440000A691A61704700004008002010B5024682
:10145000130005F086F8100913202D3A47545E6BEF
:101460007885929FA9B6C3D06548006840094001BD
:10147000CB06DB0E1843624B1860BDE06048006885
:101480001F235B0198434B011F2464012340184331
:101490005B4B1860B0E05A4800681F239B029843DA
:1014A0008B021F24A40223401843554B1860A3E06D
:1014B000534800681F23DB039843CB031F24E40336
:1014C000234018434E4B186096E04D4800681F2398
:1014D0001B0598430B051F24240523401843484B44
:1014E000186089E0464800681F235B0698434B0656
:1014F0001F24640623401843414B18607CE0404899
:10150000406840094001CB06DB0E18433C4B586055
:1015100072E03B4840681F235B0198434B011F2446
:10152000640123401843364B586065E034484068F6
:101530001F239B0298438B021F24A40223401843BD
:101540002F4B586058E02E4840681F23DB03984318
:10155000CB031F24E40323401843294B58604BE07E
:10156000274840681F231B0598430B051F242405AB
:1015700023401843224B58603EE0214840681F2317
:101580005B0698434B061F246406234018431C4BFC
:10159000586031E01A48806840094001CB06DB0EF4
:1015A0001843174B986027E0154880681F235B019C
:1015B00098434B011F24640123401843104B98604B
:1015C0001AE00F4880681F239B0298438B021F2458
:1015D000A402234018430A4B98600DE00848806835
:1015E0001F23DB039843CB031F24E403234018434A
:1015F000034B986000E000BF00BF002010BD00005A
:101600004024004030B50346002B01D1042030BDFA
:101610001B4880680124A402A0431C78A402012571
:10162000AD022C402043164CA06020468068E41395
:10163000A043134CA06020468068E414A043D40269
:101640006D002C4020430E4CA060002A06D020469E
:101650008068E413A0430019094CA060084840309A
:1016600080680F242405A0434C1E24050F252D055A
:101670002C402043024C4034A0600020C7E700000B
:10168000002400400348406840084000401C0149D5
:101690004860704700240040044840680121C903A5
:1016A000884340180149486070470000002400400A
:1016B0000246074B002A01D1042070470F2901DDA3
:1016C0000420FAE78800185810800020F5E7000091
:1016D0005024004010B504463948006B0007C00F85
:1016E00000280CD037488068002802D03549886827
:1016F00080473348406B082188433149486330486C
:10170000006B4007C00F00280CD02E48C06800288E
:1017100002D02C49C86880472948406B042188437F
:10172000274948632648006B8007C00F00280CD06B
:1017300024480069002802D02249086980472048CF
:10174000406B022188431E4948631D48006BC00757
:10175000C00F00280CD01B484069002802D019494E
:10176000486980471648406B400840001449486368
:101770001348006BC006C00F00280CD01148406809
:10178000002802D00F49486880470D48406B10215F
:1017900088430B4948630A48006B8006C00F002845
:1017A0000CD008480068002802D006490868804725
:1017B0000348406B202188430149486310BD000065
:1017C00080240040400800200146002901D1042067
:1017D0007047204840680C2290434A7892000C23BE
:1017E0001A4010431B4A5060104640689A029043CA
:1017F0008A7812039B021A401043164A5060104622
:101800004068DA109043CA785202DB101A40104345
:10181000104A506010464068D21490430A79D202B0
:101820000123DB021A4010430A4A506010468068C8
:1018300012149043074A90601046806852149043F7
:10184000044A90601046806892149043014A906068
:101850000020BDE7002400400348406840084000E5
:10186000401C014948607047C0240040FEB501F0AB
:1018700041FA6048006801F05BF904465D48006881
:1018800005F088FC05462146FEF7B4FC04465A489C
:10189000006802F0F9FD5949086057480068801C4B
:1018A00002F0F2FD56490860564952480068FEF7BA
:1018B000E1FF33D353494F480068FEF7D1FF2DD2E3
:1018C0004E4801682046FEF7D5FF28D84C480168ED
:1018D0002046FEF7C5FF22D84848016848480068FE
:1018E000FEF7D9FC01904848016848480068FEF7B7
:1018F000D2FC00900199FEF713FD06463F480168AF
:101900002046FEF7C8FC07463146FEF7CCFC0546EC
:101910003D4801682846FEF76DFC04465BE035480B
:1019200001682046FEF7A6FF28D234480168204609
:10193000FEF796FF22D22F48016830480068FEF774
:10194000AAFC07462B4801682F480068FEF7A3FC55
:1019500039460090FEF7E4FC06462648016820461A
:10196000FEF799FC31460190FEF79DFC05462148A3
:1019700001682846FEF73EFC04462CE0204801683A
:101980002046FEF777FF26D221492046FEF768FF62
:1019900021D81A4801681A480068FEF77CFC0746FF
:1019A0001948016819480068FEF775FC394600902F
:1019B000FEF7B6FC0646124801682046FEF76BFCAF
:1019C00031460190FEF76FFC054610480168284635
:1019D000FEF710FC04462046FEF7EAFE0D4A0E4BC9
:1019E00001910090FEF7DAFC0546FEF71DFF044664
:1019F0002046FEBDE005002078000020F80500200C
:101A0000F405002000000C4200060020FC05002028
:101A1000000048429A9999999999B93F10B5374968
:101A200037480068FEF73FFC35490860354948688B
:101A30003249FEF738FC3349486088682F49FEF781
:101A400032FC3049886080202F490870012048709E
:101A50002C494868FEF75AFE0004000E2A49887097
:101A600028494868FEF752FE2749C8702548008873
:101A700000120871234800784871224880890012BA
:101A800088712048007BC8711E48C0890012087206
:101A90001C48807B48721B498868FEF737FE0004AB
:101AA000000E1949887217498868FEF72FFE1649FB
:101AB000C872164800880004000E087313480078A6
:101AC00048730F480068FEF721FE0004000E0E491F
:101AD00088730B480068FEF719FE0B49C873002491
:101AE00009E00948015D012004F047FB322005F0C0
:101AF000F7FA601CC4B2102CF3DB10BD00002041CB
:101B00002C000020980600207806002028000020E5
:101B100030B5024600201402034D631901248C40A5
:101B2000E4435C6130BD0000000C004070B502462B
:101B300000201502034EAB191C692546CD40E8076D
:101B4000C00F70BD000C004010B502460020002AF6
:101B500004D0012A0BD0022A1BD111E00F4B1B68C5
:101B60001B0C1B048CB223430C4C236013E00C4B66
:101B70001B681B0C1B048CB22343094C23600AE036
:101B8000084B1B681B0C1B048CB22343054C2360C1
:101B900001E0012000BF00BF10BD0000000C0040AC
:101BA000000D0040000E004010B502460020002A43
:101BB00004D0012A0BD0022A1BD111E00F4B5B6825
:101BC0001B0C1B048CB223430C4C636013E00C4BC6
:101BD0005B681B0C1B048CB22343094C63600AE056
:101BE000084B5B681B0C1B048CB22343054C6360E1
:101BF00001E0012000BF00BF10BD0000000C00404C
:101C0000000D0040000E004010B5014600200B0200
:101C1000034C1A19D3685B085B005B1CD36010BDD2
:101C2000000C004010B5014600200B02034C1A19AD
:101C3000D3682415A3431B19D36010BD000C0040CA
:101C400030B502460020002A04D0012A56D0022ACC
:101C50007ED1A9E0804BDB6803242403A3430C78E6
:101C6000240303252D032C4023437B4CE3602346B0
:101C7000DB686415A3434C78640201256D022C4097
:101C80002343754CE3602346DB68A415A3438C789B
:101C900024026D102C4023436F4CE3602346DB6825
:101CA0007024A343CC78240170252C4023436A4C34
:101CB000E3602346DB680824A3430C79E40008258D
:101CC0002C402343644CE3602346DB680424A34395
:101CD0004C79A40004252C4023435F4CE360234649
:101CE000DB680224A3438C79640002252C40234343
:101CF000594CE360594C8B682360ABE0584BDB6870
:101D000003242403A3430C78240303252D032C4030
:101D10002343534CE3602346DB686415A3434C78AC
:101D2000640201256D022C4023434D4CE3602346A1
:101D3000DB68A415A3438C7824026D102C40234348
:101D4000474CE3602346DB687024A343CC7800E073
:101D50007EE0240170252C402343414CE360234660
:101D6000DB680824A3430C79E40008252C402343B6
:101D70003B4CE3602346DB680424A3434C79A40076
:101D800004252C402343364CE3602346DB680224C1
:101D9000A3438C79640002252C402343304CE3603C
:101DA000304CCB68236055E02F4BDB6803242403C1
:101DB000A3430C78240303252D032C4023432A4CF2
:101DC000E3602346DB686415A3434C786402012575
:101DD0006D022C402343244CE3602346DB68A415AA
:101DE000A3438C7824026D102C4023431E4CE360E7
:101DF0002346DB687024A343CC78240170252C4053
:101E00002343194CE3602346DB680824A3430C7981
:101E1000E40008252C402343134CE3602346DB6891
:101E20000424A3434C79A40004252C4023430E4CE6
:101E3000E3602346DB680224A3438C796400022517
:101E40002C402343084CE360084C0B69236001E0FD
:101E5000012000BF00BF30BD000C00400406002080
:101E6000000D004008060020000E00400C06002077
:101E70007CB563486349088063A018210B46D222D1
:101E8000009101900021642002F00BF980202821AC
:101E90000323009101905D48028850210A2002F03E
:101EA00033F95B480068FEF74AFC04462020022311
:101EB0002246AA210090142002F0A6F855A0202165
:101EC0000B46D22200910190AA213C2002F0E9F8B1
:101ED00051494F480068FEF7E6F90546FEF72FFC2A
:101EE0000446202001232246AA210090462002F029
:101EF0008BF84A480068FEF722FC044620200223A3
:101F00002246AA210090822002F07EF841A02021E2
:101F10000B46D22200910190AA21084602F0C1F896
:101F20003D493E480068FEF7BEF90546FEF707FC4E
:101F30000446202001232246AA210090B42002F06A
:101F400063F880201821032300910190344802880F
:101F5000FF211E31052002F0D7F88020182103232D
:101F6000009101902F480288FF211E314B2002F082
:101F7000CBF8802018210323009101902A48028881
:101F8000FF211E31A02002F0BFF828480068FEF7AC
:101F9000D6FB0446282002232246502100908220AE
:101FA00002F032F81BA028210B46D22200910190AA
:101FB0005021AD2002F075F817491C480068FEF763
:101FC00072F90546FEF7BBFB044628200123224692
:101FD00050210090B22002F017F8154805F0AEF835
:101FE00014A018210B46D2220091019000216420F8
:101FF00002F057F80020C043024908807CBD000071
:102000001FF800001E0000204D4158003000002045
:10201000340000202E000000000020413800002085
:10202000320000203C0000203E0000204000002044
:10203000B80B0000202020007CB501F0F3FCFD4827
:102040000068FD490988884204D9FA480088FA499D
:10205000088043E0F9494868F9490968FEF70AFC35
:1020600004D2F6484068F649086037E0F3498868CA
:10207000F4490968FEF7FEFB04D2F0488068F14994
:1020800008602BE0ED480088EF490988884204DDAC
:10209000EA480088EC49088020E0E8488089EB495C
:1020A0000988884204DDE5488089E849088015E010
:1020B000E248C089E6490988884204DDDF48C089D2
:1020C000E34908800AE0E3480168E3480068FEF756
:1020D000D1FB03D2E0480068DE490860D5480068BB
:1020E0004B2804D83F204001DC49088014E0D14847
:1020F00000684B2808D9CF480068FA2804D81F2068
:10210000C043D649088007E0CA480068FA2803D9C6
:102110001F20C002D149088080202821032300917C
:102120000190C448502102680A2001F0EDFF002010
:10213000C043CA490880C1494868FEF700FB04460D
:10214000202002232246AA210090142001F05CFFE7
:10215000C3A020210B46D22200910190AA213C204D
:1021600001F09FFFB5494868BE49FEF79CF8054657
:10217000FEF7E5FA0446202001232246AA2100901A
:10218000462001F041FFAD498868FEF7D8FA0446C1
:10219000202002232246AA210090822001F034FF51
:1021A000AFA020210B46D22200910190AA2108461F
:1021B00001F077FFA1498868AA49FEF774F805463F
:1021C000FEF7BDFA0446202001232246AA210090F2
:1021D000B42001F019FF994800887D21C900884288
:1021E00004DC3F2040019D49088018E093480088A6
:1021F0007D21C900884209DD904800889A498842BB
:1022000004DC1F20C0439549088008E08B48008803
:102210009549884203DD1F20C00290490880802034
:10222000182100910190854802880423FF211E3166
:10223000052001F069FF814880894B21C90088424F
:1022400004DC3F2040018549088009E07B48808903
:102250004B21C900884203DD1F20C0027F4908804E
:102260008020182100910190744882890423FF2165
:102270001E314B2001F048FF7048C089642804DCFF
:102280003F2040017549088007E06C48C0896428F8
:1022900003DD1F20C00271490880802018210091B1
:1022A00001906648C2890423FF211E31A02001F05D
:1022B0002BFF0020C0436949088004F0CFFF0A20AB
:1022C00004F03CFF04F0CAFF0A2004F037FF67481F
:1022D000007800281AD1664800886649884215DAD5
:1022E00065480078012811D11E2004F027FF6048BE
:1022F0000088604988420CDA00205F49087003F0CA
:1023000041F855490860FFF789FB02E00020524977
:102310000860642159480088FDF710FF462908DD50
:10232000642156480088FDF709FF502901DAFFF7BC
:1023300075FB04F093FF142004F000FF04F08EFFFF
:10234000142004F0FBFE4E480088C8384D49098827
:1023500088422ADA4B48018849480088C8308142BF
:1023600023DA1E2004F0EAFE45480088C8384549B3
:102370000988884218DA4348018841480088C830F3
:10238000814211DA0521002000F082FEFF202D306D
:1023900004F0D4FE0521002000F046FDFF202D3082
:1023A00004F0CCFEFFF764FD9AE037480088C83897
:1023B0003449098888423CDA32480188324800882A
:1023C000C830814235DA1E2004F0B8FE2E4800885D
:1023D000C8382C49098888422BDA2A4801882A48BB
:1023E0000088C83081427BDA28480078002853D121
:1023F0000120264908700521002000F049FEFF2039
:102400002D3004F09BFE0521002000F00DFDFF2083
:102410002D3004F093FE0621C02000F039FE0A2082
:102420001BA100231B4A009101901946184600F099
:10243000D7FE55E02800002030000020980600203C
:102440003400002038000020320000203C00002032
:102450003E000020400000202C0000201E00002034
:102460002E00000000002041DC05000010000020CC
:102470000A0000203C0F000024000020440000203F
:102480000E000020080000200C0000204600002064
:10249000C2BD0000FFFF00001248007801281FD1D4
:1024A000002010490870052100F0F2FDFF202D30BA
:1024B00004F044FE0521002000F0B6FCFF202D3082
:1024C00004F03CFE0621C02000F0AEFC06A018215E
:1024D0000B465022009101900021084601F0E1FDD9
:1024E0007CBD00004600002020202020202020204D
:1024F0002000000010B5044603480068002802D000
:1025000001480068804710BD1006002070B50446E1
:102510000E4615462046002805DBC206D20E0121D4
:102520009140184A116000BF3146204604F03EF841
:10253000012D0AD12046002805DBC206D20E01215A
:102540009140114A116000BF1BE02046002816DBB5
:10255000C206D20E012191400B4A8032116000BFA9
:1025600000BF00BFBFF34F8F00BF00BF00BF00BF61
:1025700000BF00BFBFF36F8F00BF00BF00BF00BF31
:1025800000BF70BD80E200E000E100E010B5012076
:1025900000F088F801280AD100F01EF80D48006804
:1025A000012108430B490860012000F03DF800209C
:1025B00000F078F801280BD1002000F00DF8054854
:1025C00000680221084303490860002000F02CF84D
:1025D00010BD0000740000200146012000290CD02D
:1025E000012917D10D4A0E4BDA620E4ADA621A46F9
:1025F000926A82439A6200200EE0084A084BDA622F
:10260000084ADA621A46926A02239A43044B9A6293
:10261000002001E0012000BF00BF70475A5A0000AF
:1026200000000240A5A5000010B5014601200029C8
:1026300002D001292CD115E0174A184BDA62184A4A
:10264000DA621B6A5B069B0F0224A3435B016024D2
:1026500023401A46114B1B6AA34313430F4C2362BA
:10266000002017E00C4A0D4BDA620D4ADA621B6A51
:102670005B069B0F5B085B005B01602423401A46EE
:10268000064B1B6AA3431343044C2362002001E062
:10269000012000BF00BF10BD5A5A000000000240D8
:1026A000A5A5000001460020002906D0012909D176
:1026B000064A526AD007C00F06E0044A526A9207DF
:1026C000D00F01E0002000BF00BF704700000240B3
:1026D000F0B58BB006460C4617460025FF200A9041
:1026E00000200990202101A8FDF755FD3E480090EB
:1026F000012C0ED0022C0CD0042C0AD0062C08D0B1
:10270000082C06D00C2C04D00420099009980BB09A
:10271000F0BD364806603448006A0121490288430A
:10272000790201225202114008432F490862002514
:1027300007E0A8002E4908586043A90001AA50509C
:102740006D1C082DF5D3082C0CD12A482649C862E7
:102750002948C8620846006A0C218843001D2249A6
:1027600008621BE00C2C0ED1FF20029021481E496C
:10277000C8622148C8620846006A0C218843001DCF
:10278000194908620AE01B481749C8621A48C8621A
:102790000846006A0C2188431349086200251EE0A0
:1027A000FF200A9012E00A98411E0A9100280BD0DF
:1027B00010480D49C8621048C862A80001A909580C
:1027C000AA000098815001E00720A0E7A900009826
:1027D0004058A90001AA51588842E4D16D1C082D27
:1027E000DED3099893E700000000024010060020A5
:1027F000E8E700005A5A0000A5A5000008B5014608
:102800000022FF2000903A48814202D9042210465B
:1028100008BDFF20009006E00098431E00930028AA
:1028200001D10920F4E73348006AC006C00F002830
:10283000F2D1FF20009012E00098431E0093002880
:102840000BD02D482B4BD8622C48D8621846006A12
:1028500080088000801C186201E00920D8E7254824
:10286000006A8007800F0228E6D1FF2000900FE069
:102870000098431E0093002808D01F481D4BD862C3
:102880001E48D8620020C043186301E00920BFE75A
:102890001848006B0023DB439842E9D10020087000
:1028A000FF20009006E00098431E0093002801D10D
:1028B0000920ADE70F48006AC006C00F0028F2D11A
:1028C000FF2000900EE00098431E0093002807D0E0
:1028D0000948084BD8620948D8620020186301E013
:1028E000092095E70348006B0028ECD110468FE7DC
:1028F000FFFF0000000002405A5A0000A5A500009A
:1029000001460020144A126A520052080123DB07D4
:10291000D218114B1A62114A114BDA62114ADA626B
:10292000002906D11A46126A0C239A430C4B1A62EC
:1029300010E0012907D10A4A126A0C239A43121D9A
:10294000074B1A6206E0064A126A0C239A430832C1
:10295000034B1A6270470000002000405A5A0000E2
:1029600000000240A5A5000018B502460023FF2084
:1029700000903A48824202D90423184618BDFF202D
:10298000009006E00098441E0094002801D1092020
:10299000F4E73348006AC006C00F0028F2D1FF20D8
:1029A000009012E00098441E009400280BD02D489F
:1029B0002B4CE0622C48E0622046006A80088000D0
:1029C000401C206201E00920D8E72548006A800702
:1029D000800F0128E6D1FF2000900FE00098441EF0
:1029E0000094002808D01F481D4CE0621E48E06299
:1029F0000020C043206301E00920BFE71848006BB6
:102A00000024E443A042E9D11170FF20009006E0C9
:102A10000098441E0094002801D10920AEE7104818
:102A2000006AC006C00F0028F2D1FF2000900EE01F
:102A30000098441E0094002807D00A48084CE06221
:102A40000948E0620020206301E0092096E704487D
:102A5000006B0028ECD1184690E70000FFFF000053
:102A6000000002405A5A0000A5A500001FB5012130
:102A70001C2002F061FB00216846017041708170EA
:102A8000C170012101716A460621002000F03AFA66
:102A90006A460721002000F035FA6A460521002029
:102AA00000F030FA0521002000F0BEF96A460E2140
:102AB000402000F027FA6A460F21402000F022FA59
:102AC0000E21402000F0B0F90F21402000F0E0FA84
:102AD0006A460621802000F015FA6A460721802008
:102AE00000F010FA6A460521802000F00BFA6A46D1
:102AF0000421802000F006FA6A460621C02000F07A
:102B000001FA012168460172417281720021C1728D
:102B10000121017302AA0221C02000F0F3F9022171
:102B20006846817202AA0B21402000F0EBF91FBD1C
:102B3000F0B5FFB084B0074600205F4919911890A6
:102B400064240A2004F0FAFA09E004F087FB5B48E9
:102B50000088A1001EAA5050012004F0C1FA2046AE
:102B6000611ECCB20028F0D164211EA805F080F9C6
:102B7000002409E0A0001EA908585149096840181E
:102B80004F490860601CC4B2322CF3DB32214C4840
:102B90000068FDF7D3FA4A490860084600684949C9
:102BA000401A4749086008460068FDF79BFD1591EB
:102BB0001490199B189AFDF7A3FC0022424B179121
:102BC0001690FDF705FD1B911A9000223F4B1B99B3
:102BD0001A98FDF7FDFC1B911A903846FEF7BAF9DA
:102BE0001D911C903846FDF7E3FD394A394B0D9194
:102BF0000C90FDF7D3FB0022374B0F910E9004F0A1
:102C000039FC1391129035493846FDF74CFB019081
:102C1000FDF7CEFD0591049031480CC8002001213C
:102C20008907FDF76DFC00222E4B01910090FDF706
:102C3000B5FB03910290059B049AFDF753FC00221B
:102C4000294B07910690FDF75BFC0B910A902448F5
:102C50000CC800202549FDF753FC099108900B9BF7
:102C60000A9AFDF73FFC0D910C901D9B1C9AFDF7F5
:102C700047FC02460B460F910E901B991A98FDF7E0
:102C8000A7FC11911090139B129AFDF787FB00226D
:102C9000174B1591149004F0EDFB0D4A0D4B179155
:102CA0001690FDF71FFC05460E4628463146FDF7F7
:102CB000BBFD7FB004B0F0BD000008400400002060
:102CC000F0050020160600000000B04000607D40C6
:102CD0006666666666127140000010400000404063
:102CE000E80500200000F03F0000244000001440F0
:102CF0000000D03FF0B58BB064263C480A9004F049
:102D0000ADFA142004F01AFA0BE004F0A7FA3848E0
:102D1000006838490988401835490860012004F0E6
:102D2000DFF93046711ECEB20028EED16421304862
:102D30000068FDF7EDF92E49086008460068FDF7C8
:102D4000CAFC00900A99FDF7AEFA8B21C9050190E3
:102D5000FDF7E6FA0746FDF72BFD0022264B03910F
:102D60000290FDF7C5FB02460B460591049000203A
:102D70002249FDF72DFC0022214B07910690FDF71B
:102D8000B1FB09910890FDF74FFD0546002401E0D5
:102D9000601CC4B2A0001B4A11582846FDF76AFD0A
:102DA00004D33046711ECEB20028F1D1A200154BDB
:102DB0009958621E92009858FDF76DFA611E8900BD
:102DC000104A089050582946FDF765FA079008996F
:102DD000FDF7A6FA0746601EFDF772FC394609901A
:102DE000FDF708FA084908600BB0F0BD000040404C
:102DF000D4050020060000200000044000406F4081
:102E00000000594008050020E00500200246054862
:102E10001018006901238B409843024BD3181861A6
:102E200000207047000E0240024605481018406915
:102E300001238B401843024BD31858610020704780
:102E4000000D024070B504460D461646002332467A
:102E50002946204603F0A8FA002070BD70B504464C
:102E60000D461646012332462946204603F09CFAB9
:102E7000002070BD014602480818808880B2704763
:102E8000000D02400246034810184068C840C007C1
:102E9000C00F7047000D024002460348101800683A
:102EA000C840C007C00F7047000E024038B5044646
:102EB000032C23D1642004F041F90221C020FFF744
:102EC000EBFF01281AD100200D4908700021684647
:102ED0000170012141700021817001F07FFA02210F
:102EE000C020FFF793FF08220221C020FFF7AAFFAE
:102EF00001F0E2FA0721002000F0CAF838BD000016
:102F00001000002030B503464E481818C068012450
:102F10008C40A0434B4C1C19E06000204A4C1C190B
:102F20008D0060511078012809D1464818180068B2
:102F300001248C402043434C1C19206008E0414888
:102F40001818006801248C40A0433E4C1C192060D6
:102F50005078002809D13B481818C06901248C40DA
:102F6000A043384C1C19E06108E036481818C069C5
:102F700001248C402043334C1C19E06190780128D7
:102F800012D130481818006A01248C4020432D4C7F
:102F90001C1920622B481818406A01248C40A04359
:102FA000284C1C19606227E09078022812D125482D
:102FB0001818006A01248C40A043224C1C1920627E
:102FC00020481818406A01248C4020431D4C1C19CD
:102FD000606211E01B481818006A01248C40A0436D
:102FE000184C1C19206217481818446A01208840A0
:102FF0008443144818184462D078002809D1114835
:103000001818C06A01248C40A0430E4C1C19E062C1
:1030100008E00C481818C06A01248C402043094C71
:103020001C19E062094880680124E403A043147974
:10303000E4030125ED032C402043044CA060002054
:1030400030BD0000000D0240000C0240000F0240A5
:1030500010B50346024818188C000251002010BD1C
:10306000000C0240024605481018C06801238B403E
:103070001843024BD318D86000207047000D02405F
:10308000024602481018816100207047000D02407E
:10309000024605481018006901238B401843024B73
:1030A000D318186100207047000D02400146054802
:1030B000006840084000CA07D20F1043014A106060
:1030C00000207047000F0240FFB581B006460A9FFE
:1030D0007EE0387880287ADB002000906DE02221A5
:1030E000009848433D49085C3978884261D12221E3
:1030F000009848433949401840787978884258D137
:10310000002554E0002423E022210098484333495D
:103110004018801C6900405C802121410840002843
:1031200008D0029A521991B2321990B2039A00F063
:10313000FDFC0BE004990398884207D0029A5219CB
:1031400091B2321990B2049A00F0F0FC601CC4B243
:10315000082CD9DB002426E02221009848431F498F
:103160004018801C6900491C405C802121410840B6
:10317000002809D0029A521991B23219083290B23D
:10318000039A00F0D3FC0CE004990398884208D01D
:10319000029A521991B23219083290B2049A00F090
:1031A000C5FC601CC4B2082CD6DB681CC5B2102D4F
:1031B000A8DB0098401C80B200900B9900988842D0
:1031C0008DDBBF1C3046103086B201E0FFE77F1C6C
:1031D0003878002800D07CE705B0F0BD9ADF000009
:1031E000FFB581B006460F46B1E00A980078802806
:1031F0007EDB002000909BE04A210098484357491D
:10320000095C0A980078814273D14A2100984843AA
:103210005249401841780A9840788142F4D10025FB
:103220007FE0002422E04A21009848434B4940189F
:10323000801C69006918405C8021214108400028F9
:1032400007D07A1991B2321990B2039A00F06EFC4D
:103250000AE004990398884206D07A1991B232198B
:1032600090B2049A00F062FC601CC4B2082CDADB55
:10327000002425E04A210098484338494018801C22
:1032800069006918491C405C8021214108400028E0
:1032900008D07A1991B23219083290B2039A00F02C
:1032A00045FC0BE004990398884207D07A1991B243
:1032B0003219083290B2049A00F038FC601CC4B293
:1032C000082CD7DB002428E04A21009848432349F2
:1032D0004018801C69006918891C405C80212141CC
:1032E000084000280BD07A1991B23219103201E04F
:1032F0002AE019E090B2039A00F018FC0BE0049960
:103300000398884207D07A1991B23219103290B2DC
:10331000049A00F00BFC601CC4B2082CD4DB681CBF
:10332000C5B2182D00DA7CE70098401C80B20090EE
:103330000B990098884200DA5EE70A98801C0A9090
:103340003046183086B202E00A98401C0A900A986B
:103350000078002800D048E705B0F0BDC4E10000C7
:1033600008B50020009000BF00980028FCD008BDE0
:103370001CB5002000F092FB0020C0438849088063
:103380000020884908808849088088490880884941
:103390000860884908608849088088490880884909
:1033A00008600A2087A10023884A009101901946ED
:1033B000B820FFF715FF86487949088085A01021BD
:1033C0000B465022009101903221142000F069FE3A
:1033D0000020C043724908807D4808807FA01021EA
:1033E0000B4650220091019064214B2000F059FEC1
:1033F0000020C0436A49088004207AA10023744A4F
:103400000091019032218220FFF75EFE78A02821F2
:103410000B46D222009101905021822000F041FE03
:10342000062074A100236A4A009101906421C820FB
:10343000FFF74AFE66485A4908806FA010210B46E4
:103440005022009101906421CF2000F02AFE00203C
:10345000C043534908800A2063A100235C4A0091BD
:1034600001908C211420FFF72FFE062061A100237C
:10347000574A00910190B9215A20FFF725FE544880
:10348000474908805CA010210B4650220091019012
:10349000B921612000F005FE0020C04340490880AA
:1034A0000A2056A100234A4A009101908C218220D3
:1034B000FFF70AFE46483A49088052A010210B4601
:1034C000502200910190B921C52000F0EAFD0020B2
:1034D000C0433349088014204BA100233B4A00918C
:1034E0000190E621FFF7F0FD4A482D4908804AA0E7
:1034F00010210B46502200910190FF21053105203B
:1035000000F0CFFD46A010210B4650220091019003
:10351000FF2105314B2000F0C4FD43A010210B46D4
:10352000502200910190FF210531A02000F0B9FD4B
:103530000020C0431A490880254808803CA010217B
:103540000B46502200910190FF210A31282000F003
:10355000A8FD0020C043124908801D4808801FA014
:1035600010210B46502200910190FF210A316E205C
:1035700000F097FD0020C0430949088014480880E6
:1035800016A010210B46502200910190FF210A3114
:10359000C32000F086FD0020C043014908801CBD07
:1035A0001E000020200000203000002032000020FB
:1035B00034000020380000203C0000203E000020A5
:1035C00040000020CEE9C8FE00000000FFFF000020
:1035D00055AD0000504D322E3500000075672F6D3F
:1035E00033000000C8CBCCE5CEC2B6C80000000056
:1035F00030303000A1E3000043000000CAAAB6C882
:103600000000000025524800D3D0BAA6C6F8CCE589
:10361000000000001FF8000065434F32000000006A
:1036200054564F43000000004843484F000000003C
:1036300070706D0010B508214020FFF7F5FB00F019
:1036400002F909214020FFF7EFFB00F0FCF8082108
:103650004020FFF71DFD00F0F6F808214020FFF79D
:10366000E3FB00F0F0F810BD1CB50521684603F03F
:10367000CAFC01211C2001F05FFD00216846017099
:103680000121C17081706A4608214020FFF73AFC91
:103690006A4609214020FFF735FC1CBD10B5082102
:1036A0004020FFF7C1FB00F0CEF809214020FFF7D2
:1036B000EFFC00F0C8F808214020FFF7E9FC00F01B
:1036C000C2F808214020FFF7AFFB00F0BCF810BDA6
:1036D00070B50825002409214020FFF7D9FC15E02A
:1036E0006006040E08214020FFF79EFB00F0ABF8B7
:1036F00008214020FFF7CCFC00F0A5F8092140206C
:10370000FFF7C0FB002801D0012004432846691EB2
:10371000CDB20028E4D108214020FFF785FB2046E8
:1037200070BD70B5044608251CE008214020FFF755
:103730007BFB00F088F880202040002804D009217D
:103740004020FFF7A5FC03E009214020FFF76CFBB8
:103750006006040E00F077F808214020FFF798FC7F
:1037600000F071F82846691ECDB20028DDD108218D
:103770004020FFF759FB70BD10B509214020FFF72D
:1037800087FC08214020FFF783FC00F05CF809214A
:103790004020FFF777FB002800D110BD0921402011
:1037A000FFF742FB00F04FF809214020FFF76AFBCA
:1037B000002801D00020F0E709214020FFF734FB6A
:1037C00000F041F80120E8E710B508214020FFF79C
:1037D0002BFB00F038F809214020FFF725FB00F013
:1037E00032F808214020FFF753FC00F02CF80921A3
:1037F0004020FFF74DFC00F026F810BD10B5082161
:103800004020FFF711FB00F01EF809214020FFF7D0
:103810003FFC00F018F808214020FFF739FC00F0C9
:1038200012F809214020FFF72DFB002805D00821C0
:103830004020FFF7F9FA002010BD08214020FFF7D3
:10384000F3FA0120F8E7322001E0411EC8B2002857
:10385000FBD1704710B50020FFF728FB10BD10B555
:103860000120FFF723FB10BD10B50220FFF71EFB60
:1038700010BD10B50320FFF719FB10BD10B50020D7
:10388000C046C04610BD10B5002002F08BF810BD38
:1038900010B5002002F0D9FB10BD10B5012002F0D8
:1038A000D4FB10BD10B50020C046C04610BD10B5F9
:1038B0000120C046C04610BD10B50020C046C0461D
:1038C00010BD10B50120C046C04610BD10B5002087
:1038D000C046C04610BD10B50120C046C04610BD50
:1038E00010B5002002F08EF910BD10B5012002F0D5
:1038F00089F910BD10B5022002F084F910BD10B591
:103900000020C046C04610BD10B50420C046C046C9
:1039100010BD10B50520C046C04610BD10B506202C
:10392000C046C04610BD10B50020C046C04610BD00
:1039300010B50020C046C04610BD10B50020C046DE
:10394000C04610BD10B50020FDF7C4FE10BD10B577
:103950000020C046C04610BD10B50020C046C0467D
:1039600010BD10B50120C046C04610BD10B50020E6
:10397000C046C04610BD10B50020C046C04610BDB0
:1039800010B50020FEF7B6FD10BD10B50020C046F2
:10399000C04610BD10B5044800880449884201DDC6
:1039A00003F042FB10BD000044000020983A0000E4
:1039B00010B50024FFF7E0FE002800D110BDA220C2
:1039C000FFF7AFFEFFF71AFF002803D1FFF7FCFE59
:1039D0000020F3E75120FFF7A4FEFFF70FFF1420AC
:1039E00003F07EFBFFF7F0FE00BFFFF7C5FEA3204C
:1039F000FFF797FEFFF702FF0028F6D0002407E04C
:103A0000FFF766FE06490855FFF714FE601CC4B2B6
:103A10000C2CF5DDFFF742FEFFF7D6FE0120CDE7C7
:103A20008806002010B5FFF7C3FF18480078FF286C
:103A30001BD11648C078002817D1144840780002DE
:103A4000124989780843124908801048007A000218
:103A50000E49497A08430E4988810C48807A000251
:103A60000A49C97A08430A49C88100F05DFF002865
:103A700003D0084800680649486000F0DDFE0028D1
:103A800003D0054800680249886010BD8806002000
:103A900098060020480000204C00002070B5064623
:103AA000002409480588408845430021084600F065
:103AB000DFF900F023FC00BF03E0304600F0DEFB3E
:103AC000641CAC42F9D370BD5E06002010B50446FC
:103AD000002C10D113498871F0200880FF2041305C
:103AE00048802C20C8712A2008722B20487205209B
:103AF0000D49087010E001200A498871FF2041300B
:103B00000880F02048802C20C8712A2008722B20C1
:103B100048720020044908700348007800F034F926
:103B200010BD00005E0600201C00002070B5054698
:103B30000E4614463146284600F09AF900F0DEFBA6
:103B4000204600F09BFB70BD10B500F0E9FB0A2198
:103B50008020FFF79DFAFE2000F067FBEF2000F0C9
:103B600064FB362000F061FB002000F035FB3A20BA
:103B700000F05BFB052000F02FFBE82000F055FB78
:103B8000122000F029FB222000F026FBE32000F0A9
:103B90004CFB012000F020FB042000F01DFBA520C1
:103BA00000F043FB402000F017FB402000F014FB26
:103BB000A42000F03AFB442000F00EFB442000F06B
:103BC0000BFBAB2000F031FB082000F005FBAA2026
:103BD00000F02BFB882000F0FFFA882000F0FCFAB0
:103BE000AE2000F022FB0B2000F0F6FAAC2000F033
:103BF0001CFB002000F0F0FAAF2000F016FB77204D
:103C000000F0EAFAAD2000F010FB772000F0E4FAB3
:103C10002A2000F00AFB002000F0DEFA002000F06D
:103C2000DBFA002000F0D8FAEF2000F0D5FA2B20C4
:103C300000F0FBFA002000F0CFFA002000F0CCFAF0
:103C4000012000F0C9FA3F2000F0C6FA2C2000F055
:103C5000ECFAF02000F0E9FA022000F0BDFA0220B0
:103C600000F0BAFA002000F0B7FA092000F0B4FA28
:103C7000132000F0B1FA0E2000F0AEFAF12000F0AF
:103C8000D4FA012000F0A8FA022000F0A5FA0020E2
:103C900000F0A2FA0F2000F09FFA1C2000F09CFA1E
:103CA000102000F099FAF22000F0BFFA0F2000F087
:103CB00093FA082000F090FA392000F08DFA0420E1
:103CC00000F08AFA052000F087FA492000F084FA13
:103CD000F32000F0AAFA112000F07EFA0A2000F08A
:103CE0007BFA412000F078FA032000F075FA0320F7
:103CF00000F072FA4F2000F06FFAF42000F095FA0D
:103D00000F2000F069FA182000F066FA162000F083
:103D100063FA1D2000F060FA202000F05DFA0F2009
:103D200000F05AFAF52000F080FA052000F054FA6D
:103D3000112000F051FA112000F04EFA1C2000F082
:103D40004BFA1F2000F048FA0F2000F045FA11202E
:103D500000F06BFA782003F0F1F9292000F065FA01
:103D60002C2000F062FA0020FFF7B0FE10BD10B565
:103D70000246012002E00346534318460B464C1E00
:103D8000E1B2002BF7D110BD70B505460024002626
:103D90002B0002F0E6FB080507090B0D0F111315A8
:103DA00006250DE007250BE0042509E0052507E0C1
:103DB000012505E0002503E0032501E0022500BF01
:103DC00000BF2B0002F0CDFB0805070A0D101316EB
:103DD000191C00BF14E08020044311E0402004437C
:103DE0000EE0C02004430BE02020044308E06020E4
:103DF000044305E0A020044302E0E020044300BFA8
:103E000000BF362600BF2146304600F07FFA174932
:103E1000087A00F00AFA002000F0DEF9002000F035
:103E2000DBF912490988491E0902080C00F0D4F98F
:103E30000E490978491EC8B200F0CEF90B49487AFC
:103E400000F0F3F9002000F0C7F9002000F0C4F9F9
:103E500006494988491E0902080C00F0BDF90349CA
:103E60008978491EC8B200F0B7F970BD5E0600201F
:103E700070B504460D460A49087A00F0D6F92012BA
:103E800000F0AAF9E0B200F0A7F90549487A00F07D
:103E9000CCF9281200F0A0F9E8B200F09DF970BD4D
:103EA0005E060020FFB585B016461C4606980390B6
:103EB0002046E217520F1218D210E3175B0F1B189F
:103EC000DB10DB000194E31A01D0012300E00023A2
:103ED000D2182146E30F5B185B105A43D2B202920C
:103EE00030462038C6B2002576E00C2C05D10C20D7
:103EF00070433C494018475D27E0102C04D1300145
:103F000039494018475D20E0142C05D11E2070432C
:103F100036494018475D18E0182C05D1242070431D
:103F200033494018475D10E0202C04D1B0013149DD
:103F30004018475D09E0282C05D1642070432E49C4
:103F40004018475D01E009B0F0BD002004903DE05D
:103F50008020384000280AD006990598FFF788FF8E
:103F600000F0CCF92548008800F088F90CE00E98A4
:103F7000002809D106990598FFF77AFF00F0BEF9ED
:103F80001F48008800F07AF97806070E0698401C52
:103F900080B206901B4841880698814200DCD2E737
:103FA00003990698401AA0420CD1039806900598F0
:103FB000401C80B20590134801880598814200DCBE
:103FC000C1E706E00498401CC0B204900498082899
:103FD000BEDB00BF681CC5B20298854285DB00BF0E
:103FE000B1E70000407F0000B4830000A489000016
:103FF000C694000022A20000E2B900001E000020CA
:10400000200000205E060020FFB585B01E460E9CF5
:1040100000200490002540E0701B401EC1B20A2021
:10402000FFF7A5FE014602900798FCF771F80A21F8
:104030000390FCF76DF80F460498002817D1701E06
:10404000A84214DD002F10D1002003940090E00F4F
:104050000019401068430599401880B22346202279
:1040600002900699FFF71EFF15E001200490002042
:1040700003940090E00F0019401068430599401820
:1040800080B2029038463030C2B223460699029878
:10409000FFF708FF00BF681CC5B2B542BCDB09B022
:1040A000F0BDFFB583B004460E460D9F0C9DE0B2F7
:1040B00002900598001980B205900698801980B288
:1040C000069018E00598844202DB029C701986B2C3
:1040D0000698864200DB14E0002000903A782B46D8
:1040E00031462046FFF7DEFE2846E90F0918491041
:1040F00009198CB27F1C38787E2802DC3878202899
:10410000E0DA00BF07B0F0BDFFB585B006461F4638
:104110000E9C0020039000255AE0781B401EC1B27F
:104120000A20FFF724FE014601900798FBF7F0FFF5
:104130000A210290FBF7ECFF04910398002830D18C
:10414000781EA8422DDD0498002828D180210F98E0
:104150000840002811D00F98C007C00F02940090AB
:10416000E00F001940106843801980B223463022C6
:1041700001900699FFF796FE10E00F98C007C00F58
:1041800002940090E00F001940106843801980B23B
:104190002346202201900699FFF784FE16E00120B5
:1041A00003900F98C007C00F02940090E00F001911
:1041B00040106843801980B2019004983030C2B238
:1041C000234606990198FFF76DFE00BF681CC5B233
:1041D000BD42A2DB09B0F0BD70B504460F2100203E
:1041E000FEF722FE0C218020FEF752FF0B218020DB
:1041F000FEF71AFE4020FEF73DFEFF2109020840AF
:10420000054620462843000422462A43D243104351
:1042100001464020FEF734FF0B218020FEF738FFD7
:104220000F210020FEF734FF70BD70B504460F214A
:104230000020FEF7F9FD0C218020FEF7F5FD0B2193
:104240008020FEF7F1FD4020FEF714FEFF21090259
:104250000840054620462843000422462A43D2430C
:10426000104301464020FEF70BFF0B218020FEF794
:104270000FFF0F210020FEF70BFF70BD70B5044645
:104280000F210020FEF7D0FD0C218020FEF700FF5B
:104290000A218020FEF7FCFE4020FEF7EBFDFF2107
:1042A00009020840054620122843000422122A432E
:1042B000D243104301464020FEF7E2FE0B2180204E
:1042C000FEF7B2FD0B218020FEF7E2FE20462843D8
:1042D000000422462A43D243104301464020FEF701
:1042E000CFFE0B218020FEF79FFD0B218020FEF7E3
:1042F000CFFE0F210020FEF7CBFE70BD10B50249A6
:10430000C879FFF792FF10BD5E06002070B5054624
:104310000C462846FFF789FF2046FFF75DFF70BD7A
:104320001FB50521684602F06EFE01211C2000F039
:1043300003FF00216846017041708170C170012146
:1043400001716A460A214020FEF7DCFD6A460F2112
:104350000020FEF7D7FD6A460A218020FEF7D2FD35
:104360006A460B218020FEF7CDFD6A460C21802095
:10437000FEF7C8FD052102A802F045FE00216846AF
:10438000017241728172C172017302AA4020FEF76C
:10439000B9FD02AA01214020FEF7B4FD02AA0221C4
:1043A0004020FEF7AFFD02AA03214020FEF7AAFD40
:1043B00002AA04214020FEF7A5FD02AA0521402003
:1043C000FEF7A0FD02AA06214020FEF79BFD02AAEF
:1043D00007214020FEF796FD1FBD00000146012089
:1043E0000A78002A04D0144A126910231A4303E001
:1043F000114A126910239A430F4B1A614A78002A16
:1044000004D01A46126904231A4303E00A4A1269C7
:1044100004239A43084B1A618A78002A04D01A466A
:10442000126902231A4303E0034A126902239A43E2
:10443000014B1A610020704700ED00E030BF70476B
:104440001CB501211C2000F077FE01211F2000F087
:1044500073FE0120FEF754FA002000F08BFE0021CD
:104460006846017004214170032181700C21C170E4
:1044700000F0C6FD0421684601710021417181717F
:1044800001A800F0F1FB1CBDF8B504462578607862
:10449000FCF721F9074607493846FBF741FF074675
:1044A0002846FCF718F939460090FBF7A3FE0646AC
:1044B0003046F8BD0000C84200200246401C910072
:1044C000644A5158644AD1600246401C9100614AD6
:1044D0005158614A11620246401C91005D4A515890
:1044E0005D4A51620246401C91005A4A51585A4A4C
:1044F000D1620246401C9100564A5158564A91607A
:104500000246401C9100534A5158534A11600246DA
:10451000401C91004F4A51584F4A4032D1600146E9
:10452000421CD0B289004B4A51584B4A403211626A
:104530000146421CD0B28900464A5158464A403290
:1045400051620146421CD0B28900424A5158424A47
:104550004032D1620146421CD0B289003D4A5158D6
:104560003D4A403291600146421CD0B28900394A2E
:104570005158394A403211600146421CD0B289007C
:10458000344A5158344A8032D1600146421CD0B27C
:104590008900304A5158304A803211620146421C2B
:1045A000D0B289002B4A51582B4A803251620146C1
:1045B000421CD0B28900274A5158274A8032D16222
:1045C0000146421CD0B28900224A5158224A803208
:1045D00091600146421CD0B289001E4A51581E4AC1
:1045E000803211600146421CD0B28900194A5158EC
:1045F000194AC032D1600146421CD0B28900154A26
:104600005158154AC03211620146421CD0B289008D
:10461000104A5158104AC03251620146421CD0B271
:1046200089000C4A51580C4AC032D1620146421CE2
:10463000D0B28900074A5158074AC03291600146FA
:10464000421CD0B28900034A5158034AC03211605B
:1046500070470000E0070020000D024010B5012067
:1046600001F07CFD0449054A12788854034800781B
:10467000401C0249087010BDA80600206E000020F2
:1046800070B506460C461546FFF776F8002800D1AF
:1046900070BD8020FFF745F8FFF7B0F8002803D180
:1046A000FFF792F80020F3E73046FFF73AF8FFF7FC
:1046B000A5F8FFF761F88120FFF733F8FFF79EF8C0
:1046C0000CE0FFF705F82870012C02D1FEF7E6FF99
:1046D00001E0FEF7AFFF6D1C601E84B2002CF0D12C
:1046E000FFF772F80120D3E770B505460C46FFF7D7
:1046F00043F8002800D170BD8020FFF712F8FFF7C3
:104700007DF8002803D1FFF75FF80020F3E7284683
:10471000FFF707F8FFF772F82046FFF702F8FFF7F8
:104720006DF8FFF751F80120E5E7000010B53E49AC
:104730003E4800F09DF93D4800783C4949784018D2
:104740003A49C978401839490979401837494979AF
:1047500040183649897940183449C97940180028E9
:1047600050DD324843780122002100F059F9002839
:104770004CD02E48C3780122022100F051F90028C4
:1047800044D02A4843790122042100F049F9002845
:104790003CD02648C3790122062100F041F90028C7
:1047A00034D0214883780222002100F039F9002812
:1047B0002CD01D4843790222032100F031F9002852
:1047C00024D01948C078000617490979090440180F
:1047D0001649097809024018144989784018144983
:1047E00008601248007900061049897909044018C8
:1047F0000D490978090240180B49497840180D49BC
:10480000086003E00849094800F032F9642002F02A
:1048100095FC3A2000F0B6F9002801D0002400E011
:104820000124204610BD0000580000205000002048
:104830006000002064000020F0B585B00024002056
:104840000490FEF799FF002801D105B0F0BD80204B
:10485000FEF767FFFEF7D2FF002803D1FEF7B4FF93
:104860000020F2E7F520FEF75CFFFEF7C7FF1420FB
:1048700002F036FCFEF7A8FF00BFFEF77DFF8120A7
:10488000FEF74FFFFEF7BAFF0028F6D0002407E03E
:10489000FEF71EFF04A90855FEF7CCFE601CC4B24B
:1048A000032CF5DDFEF7FAFEFEF78EFF6846017C6D
:1048B000407C09186846807C0818002828DD684676
:1048C000837C0222002104A800F0AAF800281FD04F
:1048D0006946097C0A026946497C51180E4A114012
:1048E0000846FBF7EDFE0746FBF762FF0546002290
:1048F0000A4BFBF705FE0022094B01910090FBF7E4
:104900004DFD03910290FBF78FFF0649086001E01F
:1049100000209AE7012098E7F0FF000000405F3F89
:10492000000018C04C000020F0B585B00024002025
:104930000490FEF721FF002801D105B0F0BD8020D2
:10494000FEF7EFFEFEF75AFF002803D1FEF73CFF0B
:104950000020F2E7F320FEF7E4FEFEF74FFF1420FD
:1049600002F0BEFBFEF730FF00BFFEF705FF81201F
:10497000FEF7D7FEFEF742FF0028F6D0002407E03E
:10498000FEF7A6FE04A90855FEF754FE601CC4B24B
:10499000032CF5DDFEF782FEFEF716FF6846017C6C
:1049A000407C09186846807C0818002828DD684685
:1049B000837C0222002104A800F032F800281FD0D6
:1049C0006946097C0A026946497C51180E4A114021
:1049D0000846FBF775FE0746FBF7EAFE05460B4A5D
:1049E0000B4BFBF78DFD0B4A0B4B01910090FBF736
:1049F000D5FC03910290FBF717FF0849086001E01E
:104A000000209AE7012098E7FCFF0000D7A3703D43
:104A10000AF7653FCDCCCCCCCC6C47C04800002019
:104A2000FFB50C46154600260021224616E00098E8
:104A3000805C414008260DE080200840002805D019
:104A40004800FF2732377840C1B201E04806010E26
:104A5000701EC6B2002EEFDC501CC2B2601990422C
:104A6000E5DC994202D1012004B0F0BD0020FBE753
:104A700070B506460D460824FEF77EFE002800D1DC
:104A800070BD8020FEF74DFEFEF7B8FE002803D172
:104A9000FEF79AFE0020F3E7FA20FEF742FEFEF74B
:104AA000ADFE0F20FEF73DFEFEF7A8FEFEF764FE0A
:104AB000002800D1E4E78120FEF733FEFEF79EFEDA
:104AC000002803D1FEF780FE0020D9E70CE0FEF7B6
:104AD000FFFD3070012C02D1FEF7E0FD01E0FEF792
:104AE000A9FD761C601EC4B2002CF0D1FEF76CFE4E
:104AF0000624FEF741FE002800D1C1E78020FEF722
:104B000010FEFEF77BFE002803D1FEF75DFE0020BD
:104B1000B6E7FC20FEF705FEFEF770FEC920FEF7A3
:104B200000FEFEF76BFEFEF727FE002800D1A7E788
:104B30008120FEF7F6FDFEF761FE002803D1FEF7A7
:104B400043FE00209CE70CE0FEF7C2FD2870012C1C
:104B500002D1FEF7A3FD01E0FEF76CFD6D1C601EA7
:104B6000C4B2002CF0D1FEF72FFE012088E708B573
:104B7000002000906A460121E720FFF781FD68468A
:104B8000007808BD10B504462146E620FFF7ACFDCD
:104B90001E2002F0D3FAFFF7EAFFA04201D1012064
:104BA00010BD0020FCE700002D48C0682D490860BA
:104BB0002B48006A48602A48406A88602848C06AD2
:104BC000C860274880680861254800684861244813
:104BD0004030C068886122484030006AC86120487F
:104BE0004030406A08621E484030C06A48621C4833
:104BF0004030806888621A4840300068C8621848AF
:104C00008030C068086316488030006A48631448E2
:104C10008030406A886312488030C06AC863104898
:104C20008030806808640E488030006848640C4812
:104C3000C030C06888640A48C030006AC864084848
:104C4000C030406A08650648C030C06A48650448FC
:104C5000C030806888650248C0300068C865704709
:104C6000000D0240E007002070B5044600252078C2
:104C7000030001F076FC0504050C10181C0018E078
:104C8000032000F00DFB032000F0D4FA11E0032014
:104C900000F0BEFA0DE00321084600F00FFB0320F0
:104CA00000F0D8FA05E0072000F034FA01E004250E
:104CB00000BF00BF2078012100F00CF8207800F040
:104CC000D9FA607800F070F9A07800F083F92846EE
:104CD00070BD000070B505460C46002601F00CFCC6
:104CE000002C01D0012000E0002004462B0001F040
:104CF00038FC050417394D748800444800684008A2
:104D00004000E107C90F08434049086000BF002C7C
:104D100005D03E48C0680005C00F0028F7D072E0FB
:104D20003B48C06840084000401C3949C8600846FC
:104D3000C06802218843801C3549C8603348006838
:104D40000221884361000222114008432F49086074
:104D500000BF002C05D02D4800694006C00F002878
:104D6000F7D050E02948006804218843A1000422BC
:104D7000114008432549086000BF002C05D0234896
:104D80004069C004C00F0028F7D03CE020484038FC
:104D9000C06801218903884340181D494039C86013
:104DA0000846C0680121C9038843401818494039A2
:104DB000C8601648006808218843E10008221140B5
:104DC00008431249086000BF002C05D00F488069D5
:104DD0004006C00F0028F7D015E00C4800681021ED
:104DE000884321011022114008430849086000BF90
:104DF000002C05D00548C06B4003C00F0028F7D039
:104E000001E0042600BF00BF304670BD0020004016
:104E1000C00D024030B589B000241422564904A8C0
:104E2000FBF7A0F95448143000680390002000906C
:104E30000190029051480188684601814F4841889D
:104E40006846C1804D488188684681804B48C1884A
:104E500068464180494820300188684601804848BA
:104E600000680006450F2B0001F07BFB05042E3087
:104E70003E4178004248C0684005400D69460989B6
:104E8000884201D1089C1EE03D48C0684005400DA5
:104E90006946C988884201D1079C14E03848C06837
:104EA0004005400D69468988884201D1069C0AE088
:104EB0003348C0684005400D69464988884201D1A1
:104EC000059C00E0049C4BE02E4C49E068460088BD
:104ED0002B4949698905890D884202D16846C489F0
:104EE00001E0684684893BE00124E40338E024487B
:104EF000C06B8007800F032829D1684600892049AC
:104F0000C9684905490D884201D1089C20E06846DE
:104F1000C0881B49C9684905490D884201D1079CD1
:104F200016E0684680881649C9684905490D8842D7
:104F300001D1069C0CE0684640881149C9684905C2
:104F4000490D884201D1059C02E0049C00E00D4C13
:104F50000B48C06BC005000F444301E0002400BFB4
:104F600000BF074800684005410F2046C84004467E
:104F7000204609B030BD000008E80000000C100019
:104F8000002000400048E80110B50024FFF742FF70
:104F9000044604480068C004810F2046C840044607
:104FA000204610BD0020004070B50446002501F0E9
:104FB000A3FA074800680721090288432102072253
:104FC00012021140084302490860284670BD0000E3
:104FD0000020004070B50446002501F08DFA074816
:104FE00000680321C9028843E1020322D202114072
:104FF000084302490860284670BD000000200040B8
:105000001EB50146002200200090019002903D480C
:105010000388684603813B4843886846C380394813
:105020008388684683803748C38868464380887889
:1050300003282DD168460089334BDB685B055B0D87
:10504000984202D1C878022820DC6846C0882E4BDE
:10505000DB685B055B0D984202D1C878022815DC3D
:1050600068468088284BDB685B055B0D984202D15F
:10507000C87803280ADC68464088234BDB685B0558
:105080005B0D98420CD1C878062809DD06201EBDAC
:10509000C8781E4B58431E4B984201D90620F6E7AC
:1050A0001948C06B03235B0398430B785B0303240D
:1050B000640323401843144BD8631846C06B1C2369
:1050C00098434B789B001C24234018430E4BD86315
:1050D0001846C06BFF23E1339843CB785B01FF2474
:1050E000E13423401843084BD8631846C06B80084E
:1050F00080008B789B079B0F1843034BD8631046A7
:10510000C5E70000000C1000002000400048E80146
:10511000006CDC0210B501460020064AD26B072362
:10512000DB039A43CB030724E40323401A43014BD8
:10513000DA6310BD0020004010B5024600200029AF
:1051400001D0012300E000231946002907D0084BB5
:105150001B6A012494402343054C236206E0044B60
:105160001B6A01249440A343014C236210BD00003C
:105170000020004010B5014600200B0001F0F1F9BD
:105180000504101C283440001F4B1B895A05520D82
:105190001E4BDB68DB0ADB0213431C4CE36031E08F
:1051A000194BDB885A05520D184BDB68DB0ADB0212
:1051B0001343164CE36025E0134B9B885A05520DB0
:1051C000124BDB68DB0ADB021343104CE36019E08F
:1051D0000D4B5B885A05520D0C4BDB68DB0ADB027A
:1051E00013430A4CE3600DE0074B1B885A05520D30
:1051F000064BDB68DB0ADB021343044CE36001E08F
:10520000042000BF00BF10BD000C100000200040B3
:1052100010B501460020064A526903239B029A43B7
:105220008B020324A40223401A43014B5A6110BD90
:105230000020004010B501460020054A12693023C5
:105240009A430B01302423401A43014B1A6110BDCD
:105250000020004010B501460020054A9269302325
:105260009A430B01302423401A43014B9A6110BD2D
:105270000020004070B504460025264601F03CF9A8
:1052800006480068E02188437101E022114008438C
:105290000249086000F02CF8284670BD002000404C
:1052A00001460020044A1269920892008B079B0F66
:1052B0001A43014B1A6170470020004030B5024686
:1052C00000200A4B9B690C24A34394000C252C401E
:1052D0002343064CA36123469B699B089B008C07D4
:1052E000A40F2343014CA36130BD00000020004007
:1052F00010B5FFF78FFD0149086010BD00000020C8
:1053000010B5074909894805400D0649C968C90A09
:10531000C9020143034AD160FFF7EAFF10BD000054
:10532000000C10000020004010B504460F21402062
:10533000FDF7AEFE1E2001F0D3FE0F214020FDF749
:1053400073FD052001F0FAFE0DE00E214020FDF76F
:105350009FFE0B2001F0C4FE0E214020FDF764FDEE
:105360000B2001F0BDFE2046611ECCB20028ECD11E
:105370000E214020FDF78CFE7D20C00001F0DEFEF6
:1053800010BD0000FEB5FDF7B5FCFCF76FFA054651
:10539000FBF7CAFF04462746E149E2480068FBF7ED
:1053A00069FA05D3E049DF480068FBF759FA27D2CC
:1053B0001F20C002DD490880DDA028210B46D22233
:1053C0000091019050218220FEF76BFE0020C04327
:1053D000D649088005210020FDF75AFEFF202D3018
:1053E00001F0ACFE05210020FDF71EFDFF202D3051
:1053F00001F0A4FE7D20000101F0A0FE0020FEBD12
:10540000CD49C8480068FBF72BFA27D21F20C002FD
:10541000C6490880C9A028210B46D22200910190DC
:1054200050218220FEF73DFE0020C043BF49088086
:1054300005210020FDF72CFEFF202D3001F07EFE1F
:1054400005210020FDF7F0FCFF202D3001F076FE55
:105450007D20000101F072FE0020D0E7B949B1487B
:105460000068FBF707FA27D21F20C002AF49088067
:10547000B5A028210B46D222009101905021822014
:10548000FEF70FFE0020C043A84908800521002038
:10549000FDF7FEFDFF202D3001F050FE052100201C
:1054A000FDF7C2FCFF202D3001F048FE7D200001F9
:1054B00001F044FE0020A2E7A5492046FBF7D0F901
:1054C00029D23F20400199490880A2A028210B46FB
:1054D000D2220091019050218220FEF7E2FD0020AF
:1054E000C043924908800320FFF71EFF05210020DA
:1054F000FDF7CEFDFF202D3001F020FE052100201C
:10550000FDF792FCFF202D3001F018FEC82001F0BD
:1055100015FE002073E72046FBF74AF905468F4A3F
:105520008F4BFBF76DF929D21F20C0027F490880FD
:105530008CA028210B46D22200910190502182207C
:10554000FEF7AFFD0020C043784908800220FFF736
:10555000EBFE05210020FDF79BFDFF202D3001F023
:10556000EDFD05210020FDF75FFCFF202D3001F04F
:10557000E5FDC82001F0E2FD002040E77449204627
:10558000FBF778F97ED879492046FBF769F979D29B
:105590006F492046FBF76EF920D82046FBF708F943
:1055A00005460022724BFBF717F917D20120FFF7CF
:1055B000BBFE3F2040015D49088005210020FDF72A
:1055C00067FDFF202D3001F0B9FD05210020FDF71A
:1055D0002BFCFF202D3001F0B1FD4EE02046FBF703
:1055E000E7F805460022624BFBF70AF920D820466F
:1055F000FBF7DEF8054600225E4BFBF7EDF817D20D
:105600000220FFF791FE1F20C04348490880052172
:105610000020FDF73DFDFF202D3001F08FFD05211D
:105620000020FDF701FCFF202D3001F087FD24E074
:105630002046FBF7BDF8054600224E4BFBF7E0F88D
:105640001BD84A492046FBF70BF916D20220FFF778
:105650006BFE1F20C0023549088005210020FDF7A0
:1056600017FDFF202D3001F069FD05210020FDF719
:10567000DBFBFF202D3001F061FD3FA028210B4610
:10568000D22200E04AE00091019050218220FEF7F2
:1056900008FD3846FBF753F80546282002232A4622
:1056A000502100908220FEF7AFFC35A028210B4648
:1056B000D222009101905021AD20FEF7F2FC1E494C
:1056C0003846FAF7F0FD0646FBF739F8054628207C
:1056D00001232A4650210090B220FEF795FC0020BD
:1056E000C043124908800A2026A10023264A0091BF
:1056F00001906421C820FDF7E7FC23480B4908808E
:1057000022A010210B465022009101906421CF204D
:10571000FEF7C7FC0020C0430449088020466EE61F
:1057200000004842E00500200000A0401E000020CC
:105730004552524F52000000000020414552524F46
:1057400052310000000034424552524F52320000A4
:1057500000000C424C6F77202000000033333333BD
:1057600033734540486967682000000000002C4200
:1057700000C0424000404340202020202020200044
:105780002E000000A1E3000055AD00004300000022
:1057900030B585B01421684601F035FC01210820A0
:1057A000FFF7CAFC00216846017041710621C170F3
:1057B00001218171002101718170417019480290AD
:1057C00069460020FCF73CFA17490968080964217A
:1057D000FAF79EFC0021C943081A84B22146002032
:1057E000FCF7B2F91049096808096421FAF790FC3E
:1057F0000021C943081A85B229460020FCF7D4F9D4
:1058000000210846FCF784F90020FCF70BFA01227E
:1058100003210E20FCF77AFE0020FCF7F5F905B015
:1058200030BD00002D5800000000002010B5002100
:105830000846FCF77BF9012810D109480088401C74
:1058400007490880084600880649884202DD002092
:105850000349088000210846FCF75AF910BD0000F2
:1058600044000020FAFF000010B586B0082104A80B
:1058700001F0C9FB0521684601F0C5FB01211C2090
:10588000FFF75AFC01210B20FFF756FC0121684667
:1058900001706A4608210020FDF734FB022208212E
:1058A0000020FDF7D5FB01216846017400218174B9
:1058B0004174C1741548059004A800F069F90621E7
:1058C00068460172002141720621417302A800F06E
:1058D00089F8012000F0E4F80024204600F074F874
:1058E000002000F049F8022000F046F801220321D0
:1058F0000520FCF70BFE002000F02AF9022000F042
:1059000027F900F019F906B010BD00001159000088
:1059100010B5002000F03AF8012807D1124800889D
:10592000401C11490880002000F026F8022000F0F9
:105930002DF8012817D100F0ABF80C4908800A486F
:105940000088000409884018094908600949084886
:105950000068FAF7DDFB064908600020024908806C
:10596000022000F009F810BD6A0000206C00002041
:1059700028000020A08601000146002001228A4064
:10598000D243014B5A617047005800400146002045
:10599000034B1A691346CB40D807C00F704700006D
:1059A0000058004010B50446002C07D10548006897
:1059B000002802D003480068804700E000BF00BF15
:1059C00010BD00001406002001460020044A526861
:1059D000120C12048BB21A43014B5A60704700003C
:1059E0000058004010B501460020284A9269E02383
:1059F0009A430B785B01E02423401A43234B9A61BE
:105A00001A469269DB149A434B78DB020124E402C4
:105A100023401A431D4B9A611A4692699B149A437C
:105A20008B781B03640023401A43184B9A611A4673
:105A3000D26952005208CB78DB07DB0FDB071A4331
:105A4000124BDA611A46D26907231B079A430B7976
:105A50001B070724240723401A430C4BDA611A461C
:105A6000D269D208D2004B795B075B0F1A43074B10
:105A7000DA611A46D26970239A438B791B0170242C
:105A800023401A43014BDA6110BD0000005800406A
:105A900000200249C96B88B27047000000580040DE
:105AA00001460020002906D0012912D002291FD06A
:105AB00003293CD12BE01F4AD268FF2301339A43CC
:105AC0001C4BDA601A46D2685B159A43194BDA60B0
:105AD0002EE0184AD268FF2301339A43D218154B9F
