:020000040000FA
:10000000500D0020D5000000EF00000095330000E7
:1000100000000000000000000000000000000000E0
:10002000000000000000000000000000F3000000DD
:100030000000000000000000F5000000F7000000D4
:100040009D380000A7380000B1380000BB38000020
:10005000C5380000CF380000D9380000E338000070
:10006000ED380000F7380000013900000B390000BE
:10007000153900001F39000029390000333900000C
:100080003D39000047390000513900005B3900005C
:10009000653900006F3900007939000083390000AC
:1000A0008D39000097390000A1390000AB390000FC
:1000B000B5390000BF390000C9390000D33900004C
:1000C0000348854600F0FEFC0048004779720000B6
:1000D000500D002009480A4A002100A1814200D9A0
:1000E0000244084802600848804708480047FEE785
:1000F000FEE7FEE7FEE7FEE7FEE700000000002067
:100100000000000008ED00E061540000C1000000A4
:1001100030B50B46014600202022012409E00D469F
:10012000D5409D4205D31D469540491B2546954027
:1001300040191546521E002DF1DC30BD70B500246B
:100140002546002801DA01244042002901DA012570
:100150004942FFF7DDFFAC4200D04042002C00D006
:10016000494270BD03460B439B0703D009E008C911
:10017000121F08C0042AFAD203E00B780370401C57
:10018000491C521EF9D27047D2B201E00270401CE5
:10019000491EFBD270470022F6E710B513460A4607
:1001A00004461946FFF7F0FF204610BD421C0178B7
:1001B000401C0029FBD1801A7047F8B502464A401E
:1001C000D40F42004B0052085B089A4202D202460A
:1001D000084611464A0023D0C30D4A00DDB2120E74
:1001E000AD1A202D35DA49020126490AF6058A1989
:1001F000002C00D0524220214F1B1146B9402A4109
:100200001018C20D9A4221D0002C17D0012D08DC05
:10021000DA05801AD20F8019D207DBB200F084FB16
:10022000F8BDDA05801A012340001B06C0188018AB
:100230005A428018CA0F1043490007E04908C20714
:100240001143DA05801A80194008801800F064FB19
:10025000F8BD61000122511A001BF7E70122D20705
:100260005140AAE70122D2075040A6E7024670B5E6
:100270004A40D30FDB0740002DD04A002AD0010EA0
:10028000140E000212020919400A520A8418E501EC
:1002900004465443000A120A2E045043A41942197A
:1002A000200CC543AA18120C0125AD03521C52198B
:1002B00012047F39240400D0521C104301D44000A2
:1002C000491EC2B20C06C0092018401C4008802AF2
:1002D00002D003E0002070BD40084000002900DA91
:1002E0000020184370BD70B502464A40D50F40004B
:1002F0004A00ED0740085208002814D0002A12D006
:10030000C40DD30D41020120C0055202490A520A10
:10031000E41A091812187D34914201D3641C00E0DC
:100320004900002C01DA002070BD0023914201D366
:10033000891A0343400849000028F7D100290AD050
:10034000914202D10121C90705E0914201D2012168
:1003500001E00121C943E005C018401900F0DCFAB2
:1003600070BD0000F0B507460846584087B0C00F82
:10037000049048000E46590040084908BC1A8841BC
:1003800005D2384631461E4617460B4602465800EF
:10039000400810434CD0300D039040055900400DEB
:1003A000490D0590401A0290402872DA1803012185
:1003B000000B09050843019004980092002805D01D
:1003C00001995242002088410092019002984021F8
:1003D0000A1A0199009800F06BFA05460C466B4624
:1003E00007CB00F086FAC0197141039A0E0D002365
:1003F000D71756401A467A40164344D0049A002A2A
:100400002DD0029A012A039A15DC1205C01A9141D7
:1004100001263605001C7141D20F059ED2070093BC
:10042000019202962A46234600F0C4FA07B0F0BDB6
:1004300038463146FAE71605224A0F46B218C01A66
:10044000B74101210905001C4F4100187F411146A9
:1004500018187941E20F10436D19644113E0E20767
:100460006D0815436408C2071443039A0126120558
:10047000C01A91413605001C7141CE074008304337
:100480004908C01851412A46234600F086FACDE7B4
:10049000FFE7049801224000C117121A00238B4184
:1004A00004983146C417381AA141EEE730B401244C
:1004B000E407634030BC55E730B40124E4076140F1
:1004C00030BC4FE70000E0FFF0B51FB488B00B99D7
:1004D0000998002448400999C00F4900490809912A
:1004E000C0070B990090490049080B910999089899
:1004F000A64608431CD00B990A98084318D00998BF
:1005000001244000420D4800410D099824050003D4
:10051000000B204309900B980003000B20430B9025
:1005200050181C494018002201901446104605E05E
:10053000002001460DB0F0BD032801DA034600E0BB
:1005400003239C46C11A0AAE0AE05F0008ADED5BCA
:100550004F00F75B7D430027AA187C41491C5B1EB6
:100560006145F2DD410004AB5A522104120C0A43EA
:10057000240C401C0828DFDB01980290009970468B
:1005800001910090059B049A0799069800F012FAD1
:10059000D0E700000DFCFFFFF0B50C465C4085B0D5
:1005A000E40FE40703944C000026640859009446C5
:1005B000490802460296224321D062460A431ED0D1
:1005C0006200570D4A000E032303550D0124024615
:1005D0002C492405781B1B0B360B4018234326435C
:1005E000614600901C46501AB44103D30098401C49
:1005F000009002E0921800985B41002803DA002086
:10060000014605B0F0BD00200121090507468646D8
:1006100011E064461D46141BB54106D36546521BC6
:10062000B341744607430C43A646CD07400849082A
:10063000284392185B4105460D43EAD11046184302
:1006400013D06046194650407140084306D06046BA
:10065000101AB34106D20122002306E00022012332
:10066000DB0702E00122D2435310009874460105D3
:10067000381C6141029C039D0019694100F08DF90D
:10068000BFE70000FD030000C217C10F504010B5C6
:100690004018CA079623002100F046F910BD10B596
:1006A00000229623114600F03FF910BD0EB5C21787
:1006B000C10F5040CA0740180021054B0293019218
:1006C00000910A460B4600F075F903B000BD00002A
:1006D00033040000C20F410040020123400ADB0541
:1006E000D207090EC0187F2901DA00207047962929
:1006F00003DC9623591AC84001E096398840002A45
:10070000F4D040427047410040020122400AD20525
:10071000090E80187F2901DA00207047962903DC32
:100720009622511AC8407047963988407047000099
:1007300070B5CD0F4A0009030123090B1B051943AE
:100740000B4BED070024520D9A4201DA002070BDD8
:10075000074B34339A4203DC9A1A00F0B9F802E0EE
:100760000449511888402C43F1D0404270BD00002C
:10077000FF030000CDFBFFFFC20FD207400040087F
:100780000BD0C10D0723DB01C91840020905400A3F
:100790001143C208400711437047002001467047CB
:1007A00010B5002904DB0124E40740428C412146B6
:1007B000002B04DB1C460123DB075242A3418B4282
:1007C00000D1824210BD000010B5002904DB0124D5
:1007D000E40740428C412146002B04DB1C460123E8
:1007E000DB075242A341994200D1904210BD000064
:1007F000CB0FDB07490010B5490802460A4307D072
:100800000A0D07240903E401090B121B002A01DC6D
:10081000002010BDC900440F0C43C100E018D205F0
:10082000801800F079F810BD0122D207002800DB03
:10083000101A002900DB511A814270470122D207A9
:10084000002800DB101A002900DB511A884270478B
:10085000F0B51FB40646002082B005464024019141
:1008600000901BE0019922460F46304600F030F818
:10087000049A059B801A994110D3104619462246C6
:1008800000F016F8361A8F41019722460120002108
:10089000009F00F00DF838184D4100902046641E6E
:1008A0000028DFDC019B00982946324607B0F0BDE6
:1008B00010B5202A04DB0146203A9140002010BDEB
:1008C000914020239C1A0346E3401943904010BDF9
:1008D00010B5202A04DB0846203AD040002110BD84
:1008E0000B46D340D0402024A21A91400843194619
:1008F00010BD10B5202A06DBCB170846203A104160
:10090000C1170B4306E00B461341D0402024A21A26
:1009100091400843194610BD002904DA401C4900E3
:1009200001D140084000704770B40024050C05D187
:100930001024000402D1002921D01124050E01D178
:1009400000020834050F01D10001241D850F01D1DB
:100950008000A41C002801DB4000641C002908D092
:1009600020252E1B0D46F540A14000D00121294332
:10097000084301061B1B000ADB1D02D5002070BCCA
:100980007047DB05181880180029F8DA401C490068
:10099000F5D170BC40084000704710B5002B08DA54
:1009A0000024401C614192185B411A4301D1400868
:1009B000400010BDF0B51FB482B005460C0003D056
:1009C000084605F083FD02E005F080FD2030024678
:1009D000009021462846FFF76BFF049B059A0446CA
:1009E0000F4618431143084314D0184610431BD038
:1009F000009840210A1A18460599FFF769FF054635
:100A00000E46009A05990498FFF752FF084305D057
:100A1000012004E02046394607B0F0BD0020C11790
:100A200005430E432C43374300990E986305401A43
:100A30007905E40A00220C43FD0A0A3002D50020A1
:100A40000146E9E70105101969410C9C0D9D00194B
:100A50006941FFF7A2FFDFE770B54B005B08034376
:100A60000BD04B005C0D002633466542B341D417D2
:100A7000AD1AA34102DB0020014670BD12053018FB
:100A8000514170BD4A0009030123090B1B0519439D
:100A90000A4B10B5520D9A4202DA0020014610BDF1
:100AA000064B34339A4203DC9A1AFFF711FF10BD4C
:100AB000034BD218FFF7FCFE10BD0000FF0300003F
:100AC000CDFBFFFF064C0125064E05E0E36807CC91
:100AD0002B430C3C98471034B442F7D3FFF7F4FA99
:100AE000C0E80000E0E80000FEB500231A461B1A2B
:100AF0008A4103DB0020014603B0F0BD4A000D032C
:100B000001212D0B0905520D0D43D10702D100180B
:100B10006D41521E5110FF31FF3101310027044653
:100B20003E46384600970191024601210020090502
:100B3000FFF7CEFEC3197141F818324684468E463F
:100B40004A4161462846611A904104D36046241AFE
:100B5000954176461F46241900986D41401C00902F
:100B60003428E1DDF91930467041091BA84103D250
:100B70000022D243134601E00022134601980105EA
:100B8000381C7141FFF709FFB6E770B58C1805787E
:100B9000401C6B075B0F01D10378401C2A1106D162
:100BA0000278401C03E006780E70401C491C5B1E56
:100BB000F9D12B0705D40023521E0DD40B70491C0C
:100BC000FAE70378401CCB1A921C03E01D780D70E5
:100BD000491C5B1C521EF9D5A142D8D3002070BD20
:100BE00010B594B0052112A806F01AFA062110A833
:100BF00006F016FA18210AA806F012FA0621434850
:100C000006F00EFA052108A806F00AFA052106A842
:100C100006F006FA052104A806F002FA052102A84A
:100C200006F0FEF90521684606F0FAF901211C20BC
:100C300004F032FB0021084602F02EFA01210020C8
:100C400002F02AFA0321802002F026FA00218020F7
:100C500002F022FA0221802002F01EFA0121102067
:100C600004F01AFB002802D0012014B010BD00F0DF
:100C700071FD2748006840084000401C2449086076
:100C8000084600680221884321490860012006F0D7
:100C900005FA012110A8017200214172022181721E
:100CA0000321C1720021017312A800F0F5FD00219B
:100CB000084600F033FC0121084600F02FFC0D210E
:100CC000022000F02BFC0A21032000F027FC0C215D
:100CD000042000F023FC01220321182001F00EFC67
:100CE00000F042FD012110A841700A480B900AA9AA
:100CF00010A800F0D9FB05240122214612A800F01B
:100D0000E9FC00F011FE0020AFE700001A0000200F
:100D100000240040491400007FB50024A448007856
:100D200000280FD00521002002F0CCF9FF202D3043
:100D300006F010FA0521002002F080F8FF202D3087
:100D400006F008FA00249B4802F0BEFE9AA0182183
:100D50000B46FC22009101900A21282003F0B7F9EC
:100D600023E106F079FA642006F0F4F99648008849
:100D7000C83896490988884264DA944801889248BC
:100D80000088C83081425DDA06F066FA642006F019
:100D9000E1F98D480088C8388C49098888427DDA95
:100DA0008A48018888480088C8308142F7DA01F013
:100DB000A3FF8748006801F0BDFEA10002AA5050C1
:100DC0008348006806F0F2F90546A00002AA11580F
:100DD0002846FFF7F2F9A10002AA5050601CC4B2E5
:100DE000022C5BD100247B48006801F0FFFC002846
:100DF0000ED100BF0AE0A20002AB99586200754B09
:100E00001B68D01805F070FA601CC4B2022CF2DB2B
:100E10006748007800280FD00521002002F052F921
:100E2000FF202D3006F096F90521002002F006F88B
:100E3000FF202D3006F08EF9002002F045FE02F072
:100E4000B1FAB3E064480088C8386049098888422C
:100E50004EDA5E48018860480088C830814247DA2F
:100E600006F0FAF9642006F075F95B480088C83886
:100E70005649098888423BDA544801885648008818
:100E8000C830814234DA5348006801F0AFFC0028D2
:100E900014D1524802905248039000E028E0002408
:100EA0000AE0A20002AB995862004A4B1B68D018B6
:100EB00005F01AFA601CC4B2022CF2DB3C48007840
:100EC00000280FD00521002002F0FCF8FF202D3073
:100ED00006F040F90521002001F0B0FFFF202D3081
:100EE00006F038F9002002F0EFFD02F05BFA5DE059
:100EF000002C0CD13BA020210B46FF225132009147
:100F00000190FF2119311E2003F0E1F80BE036A01B
:100F100020210B46FF22513200910190FF2119310F
:100F20001E2003F0D4F801F0E7FE2948006801F024
:100F300001FEA10002AA50502548006806F036F9CB
:100F40000546A00002AA11582846FFF736F9A1006D
:100F500002AA505025491E480068FFF787F9064647
:100F6000FFF7D1FB05468020202104232A4600916B
:100F70000190F021642003F0DDF8A10002AA50588E
:100F80001A49FFF773F90646FFF7BDFB05468020B7
:100F9000202105232A4600910190FF211931642068
:100FA00003F0C8F8C82006F0D5F8DAE600BF7FBD28
:100FB000190000203084000043616C696272617422
:100FC000696F6E5F554900000E0000200800002088
:100FD000E00500207C0000200C000020333311428B
:100FE0006666264233350000343100000000C842F6
:100FF000F1B5A6B000208E49239122902698FFF7E4
:10100000BBFB2191209021992098FFF791FB1F9025
:101010001F998900874A5058FFF7AEFB1D911C901D
:101020000022854B1D991C98FFF7B6FA1D911C9064
:1010300021992098FFF77CFB401C1B901B9989008D
:101040007C4A5058FFF798FB1991189000227A4B70
:1010500019991898FFF7A0FA199118907748784ACB
:10106000179216901F994A008818FFF71FFB754AC0
:10107000754B0B910A90FFF71FFA0022734B0D91ED
:101080000C90FFF721FA159114901B994A008818CB
:10109000FFF70CFB6B4A6C4B0B910A90FFF70CFAB5
:1010A00000226A4B0D910C90FFF70EFA13911290EB
:1010B000159B149A17991698FFF7F8F90D910C9053
:1010C0001F98FFF7F3FA624A624B01910090FFF715
:1010D00049F90022604B0391029006F0ABF95C4A9B
:1010E0005C4B0791069023992298FFF73BF9002269
:1010F000594B0391029006F09DF905910490079BCE
:10110000069AFFF7D3F902460B46099108901D99FC
:101110001C98FFF741FA0B910A900D9B0C9AFFF770
:101120003BFA04460D46139B129A17991698FFF73F
:10113000BDF90D910C901B98FFF7B8FA444A454B46
:1011400001910090FFF70EF90022434B03910290AA
:1011500006F070F93E4A3F4B07910690239922987A
:10116000FFF700F900223C4B0391029006F062F970
:1011700005910490079B069AFFF798F902460B46E3
:101180000991089019991898FFF706FA0B910A909F
:101190000D9B0C9AFFF700FA2591249022462B46CE
:1011A00025992498FFF782F94A0052080D920C9075
:1011B0000022264B0D99FFF7EFF9119110901F981F
:1011C000FFF774FA0B910A90219B209AFFF774F9AC
:1011D00000221E4B0D910C90FFF776F90F910E90A7
:1011E00020462946259B249AFFF7EEFA0ED20F9B44
:1011F0000E9A11991098FFF767F922462B460D9128
:101200000C90FFF759F90F4606460DE00F9B0E9A1A
:1012100011991098FFF758F922462B460D910C9022
:10122000FFF7A0F80F4606463046394627B0F0BD16
:10123000000041405004002080842E41436DD92D90
:10124000CD2E2B406957148B0ABF19400000244053
:1012500066666666661271400000104010B5012097
:101260005349087000205349086003F093F907219F
:10127000C02001F0E3FD01F0F1FB0721C02001F0E7
:10128000DDFD0621002001F01DFF0521802001F079
:1012900019FF0721002001F015FF0421802001F033
:1012A00011FF0621C02001F0C9FD41480078002847
:1012B0000FD00521002001F005FFFF202D3005F0A3
:1012C00049FF0521002001F0B9FDFF202D3005F078
:1012D00041FF04F08FFCFFF783FC02F04BFC02F0AF
:1012E000E7F903F0CDFA04F021FA04F08BFA00BF1D
:1012F00001220C21304801F0E3F90028F8D102F076
:1013000051F82EA006F0DAFD05F0A6FF142005F036
:1013100021FF05F0A1FF142005F01CFF0D21802006
:1013200001F0BAFD012841D12C480088C8382C4969
:10133000098888423ADA2A48018828480088C83053
:10134000814233DA1E2005F005FF0D21802001F0D7
:10135000A3FD01282AD121480088C83820490988DE
:10136000884223DA1E4801881C480088C830814220
:101370001CDA0721C02001F0A5FE0D4800780028E6
:101380000FD00521002001F09DFEFF202D3005F03B
:10139000E1FE0521002001F051FDFF202D3005F078
:1013A000D9FEFFF7B9FC0FA006F088FD10BD0000C4
:1013B00019000020480000207D2500004149525FAF
:1013C000436865636B5F56312E3020323032302DEA
:1013D000362D313520090D0A000000000C000020D8
:1013E000080000202D2D2D3E2841446A7573745F3E
:1013F0004E5443290D0A0000FEB50746002401E0C3
:10140000601CC4B2E0000D4A11583846FFF70CFAD0
:10141000F6D26000401E80000849085802900298E9
:10142000FFF7AAF90546064A064BFFF73FF8019178
:101430000090FFF7DDF902900298FEBD80000020C9
:101440009A9999999999C93F10B500210B4800F0D4
:1014500097F901210A4800F093F90221094800F0A8
:101460008FF90321084800F08BF90421074800F0A8
:1014700087F901200649487010BD000004000020D3
:101480000600002074000020080000200A00002050
:101490001A000020034880680121C90388430149DC
:1014A00088607047002400404279012A05D14A69CA
:1014B000002A02D0184B4A695A610278012A05D1E4
:1014C0000A68002A02D0144B0A681A604278012A7E
:1014D00005D14A68002A02D00F4B4A685A608278C8
:1014E000012A05D18A68002A02D00B4B8A689A60CB
:1014F000C278012A05D1CA68002A02D0064BCA6800
:10150000DA600279012A05D10A69002A02D0024B69
:101510000A691A61704700003808002010B50246B9
:10152000130004F0EAFF100913202D3A47545E6BB4
:101530007885929FA9B6C3D06548006840094001EC
:10154000CB06DB0E1843624B1860BDE060480068B4
:101550001F235B0198434B011F2464012340184360
:101560005B4B1860B0E05A4800681F239B02984309
:101570008B021F24A40223401843554B1860A3E09C
:10158000534800681F23DB039843CB031F24E40365
:10159000234018434E4B186096E04D4800681F23C7
:1015A0001B0598430B051F24240523401843484B73
:1015B000186089E0464800681F235B0698434B0685
:1015C0001F24640623401843414B18607CE04048C8
:1015D000406840094001CB06DB0E18433C4B586085
:1015E00072E03B4840681F235B0198434B011F2476
:1015F000640123401843364B586065E03448406826
:101600001F239B0298438B021F24A40223401843EC
:101610002F4B586058E02E4840681F23DB03984347
:10162000CB031F24E40323401843294B58604BE0AD
:10163000274840681F231B0598430B051F242405DA
:1016400023401843224B58603EE0214840681F2346
:101650005B0698434B061F246406234018431C4B2B
:10166000586031E01A48806840094001CB06DB0E23
:101670001843174B986027E0154880681F235B01CB
:1016800098434B011F24640123401843104B98607A
:101690001AE00F4880681F239B0298438B021F2487
:1016A000A402234018430A4B98600DE00848806864
:1016B0001F23DB039843CB031F24E4032340184379
:1016C000034B986000E000BF00BF002010BD000089
:1016D0004024004030B50346002B01D1042030BD2A
:1016E0001B4880680124A402A0431C78A4020125A1
:1016F000AD022C402043164CA06020468068E413C5
:10170000A043134CA06020468068E414A043D40298
:101710006D002C4020430E4CA060002A06D02046CD
:101720008068E413A0430019094CA06008484030C9
:1017300080680F242405A0434C1E24050F252D0589
:101740002C402043024C4034A0600020C7E700003A
:10175000002400400348406840084000401C014904
:101760004860704700240040044840680121C903D4
:101770008843401801494860704700000024004039
:101780000246074B002A01D1042070470F2901DDD2
:101790000420FAE78800185810800020F5E70000C0
:1017A0005024004010B504463948006B0007C00FB4
:1017B00000280CD037488068002802D03549886856
:1017C00080473348406B082188433149486330489B
:1017D000006B4007C00F00280CD02E48C0680028BE
:1017E00002D02C49C86880472948406B04218843AF
:1017F000274948632648006B8007C00F00280CD09B
:1018000024480069002802D02249086980472048FE
:10181000406B022188431E4948631D48006BC00786
:10182000C00F00280CD01B484069002802D019497D
:10183000486980471648406B400840001449486397
:101840001348006BC006C00F00280CD01148406838
:10185000002802D00F49486880470D48406B10218E
:1018600088430B4948630A48006B8006C00F002874
:101870000CD008480068002802D006490868804754
:101880000348406B202188430149486310BD000094
:1018900080240040380800200146002901D104209E
:1018A0007047204840680C2290434A7892000C23ED
:1018B0001A4010431B4A5060104640689A029043F9
:1018C0008A7812039B021A401043164A5060104651
:1018D0004068DA109043CA785202DB101A40104375
:1018E000104A506010464068D21490430A79D202E0
:1018F0000123DB021A4010430A4A506010468068F8
:1019000012149043074A9060104680685214904326
:10191000044A90601046806892149043014A906097
:101920000020BDE700240040034840684008400014
:10193000401C014948607047C0240040FEB501F0DA
:10194000DBF96048006801F0F5F804465D4800687E
:1019500005F02CFC05462146FEF72FFC04465A48AC
:10196000006802F03BFE5949086057480068801C37
:1019700002F034FE56490860564952480068FEF7A6
:101980005DFF33D353494F480068FEF74DFF2DD21A
:101990004E4801682046FEF751FF28D84C480168A0
:1019A0002046FEF741FF22D84848016848480068B1
:1019B000FEF754FC01904848016848480068FEF76B
:1019C0004DFC00900199FEF78EFC06463F480168E9
:1019D0002046FEF743FC07463146FEF747FC054626
:1019E0003D4801682846FEF7E8FB04465BE03548C1
:1019F00001682046FEF722FF28D2344801682046BD
:101A0000FEF712FF22D22F48016830480068FEF727
:101A100025FC07462B4801682F480068FEF71EFC8E
:101A200039460090FEF75FFC0646264801682046CE
:101A3000FEF714FC31460190FEF718FC05462148DC
:101A400001682846FEF7B9FB04462CE020480168EF
:101A50002046FEF7F3FE26D221492046FEF7E4FE9B
:101A600021D81A4801681A480068FEF7F7FB0746B4
:101A70001948016819480068FEF7F0FB39460090E4
:101A8000FEF731FC0646124801682046FEF7E6FBE9
:101A900031460190FEF7EAFB0546104801682846EA
:101AA000FEF78BFB04462046FEF766FE0D4A0E4B02
:101AB00001910090FEF756FC0546FEF799FE04469C
:101AC0002046FEBDE00500207C000020F805002037
:101AD000F405002000000C4200060020FC05002058
:101AE000000048429A9999999999B93F70B536483A
:101AF000056836492846FEF7B9FB0546344948686B
:101B00003249FEF7B3FB3249486088682F49FEF737
:101B1000ADFB2F49886080202E4908700120487055
:101B20002B494868FEF7D6FD0004000E294988704D
:101B300027494868FEF7CEFD2649C870244800882A
:101B400000120871224800784871214880890012EB
:101B500088711F48007BC8711D48C0890012087237
:101B60001B48807B48721A498868FEF7B3FD000461
:101B7000000E1849887216498868FEF7ABFD1549B2
:101B8000C872154800880004000E087312480078D7
:101B900048732846FEF79EFD0004000E0D49887329
:101BA0002846FEF797FD0B49C873002409E0094851
:101BB000015D012004F0AFFA322005F09DFA601CAF
:101BC000C4B2102CF3DB70BD1400002000002041D3
:101BD000900600206E0600202C00002030B5024642
:101BE00000201402034D631901248C40E4435C611E
:101BF00030BD0000000C004070B502460020150208
:101C0000034EAB191C692546CD40E807C00F70BDD7
:101C1000000C004010B502460020002A04D0012A22
:101C20000BD0022A1BD111E00F4B1B681B0C1B04AD
:101C30008CB223430C4C236013E00C4B1B681B0C31
:101C40001B048CB22343094C23600AE0084B1B6839
:101C50001B0C1B048CB22343054C236001E00120C4
:101C600000BF00BF10BD0000000C0040000D004090
:101C7000000E004010B502460020002A04D0012AC0
:101C80000BD0022A1BD111E00F4B5B681B0C1B040D
:101C90008CB223430C4C636013E00C4B5B681B0C51
:101CA0001B048CB22343094C63600AE0084B5B6859
:101CB0001B0C1B048CB22343054C636001E0012024
:101CC00000BF00BF10BD0000000C0040000D004030
:101CD000000E004010B5014600200B02034C1A19FB
:101CE000D3685B085B005B1CD36010BD000C004038
:101CF00010B5014600200B02034C1A19D3682415B5
:101D0000A3431B19D36010BD000C004030B5024640
:101D10000020002A04D0012A56D0022A7ED1A9E050
:101D2000804BDB6803242403A3430C78240303259E
:101D30002D032C4023437B4CE3602346DB68641572
:101D4000A3434C78640201256D022C402343754C5B
:101D5000E3602346DB68A415A3438C7824026D104E
:101D60002C4023436F4CE3602346DB687024A3437D
:101D7000CC78240170252C4023436A4CE360234631
:101D8000DB680824A3430C79E40008252C40234396
:101D9000644CE3602346DB680424A3434C79A4002D
:101DA00004252C4023435F4CE3602346DB68022478
:101DB000A3438C79640002252C402343594CE360F3
:101DC000594C8B682360ABE0584BDB680324240339
:101DD000A3430C78240303252D032C402343534CA9
:101DE000E3602346DB686415A3434C786402012555
:101DF0006D022C4023434D4CE3602346DB68A41561
:101E0000A3438C7824026D102C402343474CE3609D
:101E10002346DB687024A343CC7800E07EE02401F5
:101E200070252C402343414CE3602346DB680824A3
:101E3000A3430C79E40008252C4023433B4CE3608A
:101E40002346DB680424A3434C79A40004252C40DA
:101E50002343364CE3602346DB680224A3438C799A
:101E6000640002252C402343304CE360304CCB68A7
:101E7000236055E02F4BDB6803242403A3430C7835
:101E8000240303252D032C4023432A4CE3602346DF
:101E9000DB686415A3434C78640201256D022C4075
:101EA0002343244CE3602346DB68A415A3438C78CA
:101EB00024026D102C4023431E4CE3602346DB6854
:101EC0007024A343CC78240170252C402343194C63
:101ED000E3602346DB680824A3430C79E40008256B
:101EE0002C402343134CE3602346DB680424A343C4
:101EF0004C79A40004252C4023430E4CE360234678
:101F0000DB680224A3438C79640002252C40234320
:101F1000084CE360084C0B69236001E0012000BF1E
:101F200000BF30BD000C004004060020000D004042
:101F300008060020000E00400C0600207CB5634817
:101F40006349088063A018210B46D22200910190BA
:101F50000021642002F0BBF8802028210323009197
:101F600001905D48028850210A2002F0E3F85B48A6
:101F70000068FEF7C8FB0446202002232246AA215F
:101F80000090142002F056F855A020210B46D222D2
:101F900000910190AA213C2002F099F851494F4844
:101FA0000068FEF763F90546FEF7ADFB0446202006
:101FB00001232246AA210090462002F03BF84A481D
:101FC0000068FEF7A0FB0446202002232246AA2137
:101FD0000090822002F02EF841A020210B46D22250
:101FE00000910190AA21084602F071F83D493E484F
:101FF0000068FEF73BF90546FEF785FB0446202006
:1020000001232246AA210090B42002F013F8802078
:10201000182104230091019034480288FF211E31C9
:10202000052002F087F880201821042300910190F8
:102030002F480288FF211E314B2002F07BF88020C0
:1020400018210423009101902A480288FF211E31A3
:10205000A02002F06FF828480068FEF754FB044601
:1020600028200223224650210090822001F0E2FF26
:102070001BA028210B46D222009101905021AD20B7
:1020800002F025F817491C480068FEF7EFF80546EE
:10209000FEF739FB044628200123224650210090F8
:1020A000B22001F0C7FF154805F054F814A018211C
:1020B0000B46D222009101900021642002F007F823
:1020C0000020C043024908807CBD00001FF80000CA
:1020D000220000204D415800300000203400002034
:1020E0002E000000000020413800002032000020B7
:1020F0003C0000203E00002040000020B80B000003
:10210000202020007CB5E1480068E149086001F02A
:102110009FFCE0480068E0490988884203D9DD480F
:102120000088DD490880DD494868DD490968FEF717
:1021300085FB03D2D9484068D9490860D7498868E7
:10214000D8490968FEF77AFB03D2D4488068D5499C
:102150000860D2480088D4490988884203DDCF4806
:102160000088D1490880CD488089D04909888842B3
:1021700003DDCA488089CD490880C848C089CC4958
:102180000988884203DDC548C089C9490880C94813
:102190000168BF480068FEF751FB03D2BC480068E5
:1021A000C4490860BB4800684B2804D83F20400160
:1021B000C149088014E0B74800684B2808D9B548E1
:1021C0000068FA2804D81F20C043BB49088007E0F4
:1021D000B0480068FA2803D91F20C002B649088019
:1021E00080202821032300910190AA4850210268F1
:1021F0000A2001F09FFF0020C043AF490880A74993
:102200004868FEF780FA0446202002232246AA21CD
:102210000090142001F00EFFA8A020210B46D2222E
:1022200000910190AA213C2001F051FF9B49486890
:10223000A349FEF71BF80546FEF765FA0446202081
:1022400001232246AA210090462001F0F3FE934983
:102250008868FEF758FA0446202002232246AA2165
:102260000090822001F0E6FE94A020210B46D222AD
:1022700000910190AA21084601F029FF874988684A
:102280008F49FDF7F3FF0546FEF73DFA044620208F
:1022900001232246AA210090B42001F0CBFE7F4802
:1022A00000887D21C900884204DC3F20400182492A
:1022B000088018E0794800887D21C900884209DD3E
:1022C000764800887F49884204DC1F20C0437A4951
:1022D000088008E0714800887A49884203DD1F20A1
:1022E000C0027549088080201821009101906B4838
:1022F00002880423FF211E31052001F01BFF6748DF
:1023000080894B21C900884204DC3F2040016A4992
:10231000088009E0614880894B21C900884203DDBB
:102320001F20C0026449088080201821009101907C
:102330005A4882890423FF211E314B2001F0FAFE06
:102340005648C089642804DC3F2040015A4908806F
:1023500007E05248C089642803DD1F20C0025649A7
:10236000088080201821009101904C48C2890423E4
:10237000FF211E31A02001F0DDFE0020C0434E49A8
:102380000880FFF7B3FB04F067FF142004F0E2FEBF
:1023900004F062FF142004F0DDFE4B480088C838CA
:1023A0004A49098888422EDA484801884648008808
:1023B000C830814227DA1E2004F0CCFE4248008853
:1023C000C8384249098888425FDA404801883E4857
:1023D0000088C830814258DA3D48007800280FD084
:1023E0000521002000F06EFEFF202D3004F0B2FE2B
:1023F0000521002000F022FDFF202D3004F0AAFE70
:10240000FFF79CFD41E033480088C8382F49098810
:1024100088423ADA2D4801882E480088C830814227
:1024200033DA1E2004F096FE2A480088C83827496F
:102430000988884229DA2548018826480088C8305A
:10244000814222DA2248007800280DD1012020495B
:1024500008700A2020A10023204A0091019019460B
:102460009C2000F0D7FE10E01948007801280CD11C
:102470000020174908701AA018210B46302200913D
:10248000019000219C2001F022FE7CBD1400002060
:10249000480000202C000020300000209006002082
:1024A0003400002038000020320000203C000020D2
:1024B0003E00002040000020220000202E000000EE
:1024C00000002041DC0500000E0000200800002074
:1024D000190000200C000020C6E20000FFFF0000F1
:1024E0002020000010B5044603480068002802D0F0
:1024F00001480068804710BD1006002070B50446F2
:102500000E4615462046002805DBC206D20E0121E4
:102510009140184A116000BF3146204604F012F87D
:10252000012D0AD12046002805DBC206D20E01216A
:102530009140114A116000BF1BE02046002816DBC5
:10254000C206D20E012191400B4A8032116000BFB9
:1025500000BF00BFBFF34F8F00BF00BF00BF00BF71
:1025600000BF00BFBFF36F8F00BF00BF00BF00BF41
:1025700000BF70BD80E200E000E100E010B5012086
:1025800000F088F801280AD100F01EF80D48006814
:10259000012108430B490860012000F03DF80020AC
:1025A00000F078F801280BD1002000F00DF8054864
:1025B00000680221084303490860002000F02CF85D
:1025C00010BD0000780000200146012000290CD039
:1025D000012917D10D4A0E4BDA620E4ADA621A4609
:1025E000926A82439A6200200EE0084A084BDA623F
:1025F000084ADA621A46926A02239A43044B9A62A4
:10260000002001E0012000BF00BF70475A5A0000BF
:1026100000000240A5A5000010B5014601200029D8
:1026200002D001292CD115E0174A184BDA62184A5A
:10263000DA621B6A5B069B0F0224A3435B016024E2
:1026400023401A46114B1B6AA34313430F4C2362CA
:10265000002017E00C4A0D4BDA620D4ADA621B6A61
:102660005B069B0F5B085B005B01602423401A46FE
:10267000064B1B6AA3431343044C2362002001E072
:10268000012000BF00BF10BD5A5A000000000240E8
:10269000A5A5000001460020002906D0012909D186
:1026A000064A526AD007C00F06E0044A526A9207EF
:1026B000D00F01E0002000BF00BF704700000240C3
:1026C000F0B58BB006460C4617460025FF200A9051
:1026D00000200990202101A8FDF75DFD3E480090F3
:1026E000012C0ED0022C0CD0042C0AD0062C08D0C1
:1026F000082C06D00C2C04D00420099009980BB0AB
:10270000F0BD364806603448006A0121490288431A
:10271000790201225202114008432F490862002524
:1027200007E0A8002E4908586043A90001AA5050AC
:102730006D1C082DF5D3082C0CD12A482649C862F7
:102740002948C8620846006A0C218843001D2249B6
:1027500008621BE00C2C0ED1FF20029021481E497C
:10276000C8622148C8620846006A0C218843001DDF
:10277000194908620AE01B481749C8621A48C8622A
:102780000846006A0C2188431349086200251EE0B0
:10279000FF200A9012E00A98411E0A9100280BD0EF
:1027A00010480D49C8621048C862A80001A909581C
:1027B000AA000098815001E00720A0E7A900009836
:1027C0004058A90001AA51588842E4D16D1C082D37
:1027D000DED3099893E700000000024010060020B5
:1027E000F4E700005A5A0000A5A5000008B501460C
:1027F0000022FF2000903A48814202D9042210466C
:1028000008BDFF20009006E00098431E00930028BA
:1028100001D10920F4E73348006AC006C00F002840
:10282000F2D1FF20009012E00098431E0093002890
:102830000BD02D482B4BD8622C48D8621846006A22
:1028400080088000801C186201E00920D8E7254834
:10285000006A8007800F0228E6D1FF2000900FE079
:102860000098431E0093002808D01F481D4BD862D3
:102870001E48D8620020C043186301E00920BFE76A
:102880001848006B0023DB439842E9D10020087010
:10289000FF20009006E00098431E0093002801D11D
:1028A0000920ADE70F48006AC006C00F0028F2D12A
:1028B000FF2000900EE00098431E0093002807D0F0
:1028C0000948084BD8620948D8620020186301E023
:1028D000092095E70348006B0028ECD110468FE7EC
:1028E000FFFF0000000002405A5A0000A5A50000AA
:1028F00001460020144A126A520052080123DB07E5
:10290000D218114B1A62114A114BDA62114ADA627B
:10291000002906D11A46126A0C239A430C4B1A62FC
:1029200010E0012907D10A4A126A0C239A43121DAA
:10293000074B1A6206E0064A126A0C239A430832D1
:10294000034B1A6270470000002000405A5A0000F2
:1029500000000240A5A5000018B502460023FF2094
:1029600000903A48824202D90423184618BDFF203D
:10297000009006E00098441E0094002801D1092030
:10298000F4E73348006AC006C00F0028F2D1FF20E8
:10299000009012E00098441E009400280BD02D48AF
:1029A0002B4CE0622C48E0622046006A80088000E0
:1029B000401C206201E00920D8E72548006A800712
:1029C000800F0128E6D1FF2000900FE00098441E00
:1029D0000094002808D01F481D4CE0621E48E062A9
:1029E0000020C043206301E00920BFE71848006BC6
:1029F0000024E443A042E9D11170FF20009006E0DA
:102A00000098441E0094002801D10920AEE7104828
:102A1000006AC006C00F0028F2D1FF2000900EE02F
:102A20000098441E0094002807D00A48084CE06231
:102A30000948E0620020206301E0092096E704488D
:102A4000006B0028ECD1184690E70000FFFF000063
:102A5000000002405A5A0000A5A500001FB5012140
:102A60001C2002F019FC0021684601704170817041
:102A7000C170012101716A460621002000F05CFA54
:102A80006A460721002000F057FA6A460521002017
:102A900000F052FA0521002000F0D0F96A46072123
:102AA000C02000F049FA0721C02000F0C7F96A46AB
:102AB0000621802000F040FA6A460721802000F0BD
:102AC0003BFA6A460521802000F036FA6A46042166
:102AD000802000F031FA6A460621C02000F02CFA6E
:102AE0006A460E21402000F027FA6A460F21402056
:102AF00000F022FA0E21402000F0A0F90F21402022
:102B000000F09CF901216846017241728172002136
:102B1000C1720121017302AA0221C02000F00CFA47
:102B200002216846817202AA0B21402000F004FABB
:102B30001FBD0000F0B5FFB084B0074600205F491C
:102B40001991189064240A2004F004FB09E004F0B1
:102B500083FB5B480088A1001EAA5050012004F0AE
:102B6000CBFA2046611ECCB20028F0D164211EA809
:102B700005F05EF9002409E0A0001EA9085851499B
:102B8000096840184F490860601CC4B2322CF3DB5E
:102B900032214C480068FDF7D1FA4A4908600846DE
:102BA00000684949401A4749086008460068FDF72F
:102BB0007DFD15911490199B189AFDF785FC002254
:102BC000424B17911690FDF7E7FC1B911A900022DB
:102BD0003F4B1B991A98FDF7DFFC1B911A90384662
:102BE000FEF706FA1D911C903846FDF7C5FD394ADF
:102BF000394B0D910C90FDF7B5FB0022374B0F912F
:102C00000E9004F017FC1391129035493846FDF7E9
:102C10002DFB0190FDF7B0FD0591049031480CC8E3
:102C2000002001218907FDF74FFC00222E4B019166
:102C30000090FDF797FB03910290059B049AFDF726
:102C400035FC0022294B07910690FDF73DFC0B91C6
:102C50000A9024480CC800202549FDF735FC09914D
:102C600008900B9B0A9AFDF721FC0D910C901D9B7F
:102C70001C9AFDF729FC02460B460F910E901B99FA
:102C80001A98FDF789FC11911090139B129AFDF789
:102C900069FB0022174B1591149004F0CBFB0D4AF1
:102CA0000D4B17911690FDF701FC05460E46284680
:102CB0003146FDF79DFD7FB004B0F0BD0000084037
:102CC00004000020F0050020160600000000B040BF
:102CD00000607D40666666666612714000001040C6
:102CE00000004040E80500200000F03F00002440C4
:102CF000000014400000D03FF0B58BB0642640487F
:102D00000A9004F0A9FA142004F024FA0BE004F06D
:102D1000A3FA3C4800683C490988401839490860D2
:102D2000012004F0E9F93046711ECEB20028EED140
:102D3000642134480068FDF7EBF932490860084621
:102D40000068FDF7ACFC00900A99FDF78FFA8B2123
:102D5000C9050190FDF7C7FA0746FDF70DFD0022F2
:102D60002A4B03910290FDF7A7FB02460B46059103
:102D7000049000202649FDF70FFC0022254B079107
:102D80000690FDF793FB09910890FDF731FD05468C
:102D9000002401E0601CC4B2A0001F4A115828465C
:102DA000FDF74CFD04D33046711ECEB20028F1D1A0
:102DB000A200194B9958621E92009858FDF74EFADE
:102DC000611E8900144A089050582946FDF746FABA
:102DD00007900899FDF787FA0746601EFDF754FC37
:102DE00039460990FDF7E9F90C4908608121C905C8
:102DF0000A480068FDF732FA084908600BB0F0BDD8
:102E000000004040D40500200600002000000440DF
:102E100000406F400000594008050020E0050020F8
:102E2000024605481018006901238B409843024B65
:102E3000D318186100207047000E02400246054872
:102E40001018406901238B401843024BD318586176
:102E500000207047000D024070B504460D4616462E
:102E6000002332462946204603F06CFA002070BD4C
:102E700070B504460D4616460123324629462046C3
:102E800003F060FA002070BD0146024808188088EF
:102E900080B27047000D0240024603481018406897
:102EA000C840C007C00F7047000D024002460348EB
:102EB00010180068C840C007C00F7047000E0240DD
:102EC00038B50446032C34D1642004F043F90221C0
:102ED000C020FFF7EBFF01282BD11648007801280E
:102EE00027D10021684601700121417000218170C5
:102EF00001F01EFB0221C020FFF792FF08220221F1
:102F0000C020FFF7A9FF01F081FB0621002000F09F
:102F1000D9F80521802000F0D5F80721002000F025
:102F2000D1F80421802000F0CDF80621C020FFF761
:102F300085FF38BD1000002030B503464E481818F4
:102F4000C06801248C40A0434B4C1C19E060002059
:102F50004A4C1C198D0060511078012809D146484F
:102F60001818006801248C402043434C1C19206031
:102F700008E041481818006801248C40A0433E4CEA
:102F80001C1920605078002809D13B481818C069E6
:102F900001248C40A043384C1C19E06108E03648FD
:102FA0001818C06901248C402043334C1C19E0617F
:102FB0009078012812D130481818006A01248C40FA
:102FC00020432D4C1C1920622B481818406A0124FC
:102FD0008C40A043284C1C19606227E0907802289E
:102FE00012D125481818006A01248C40A043224CB5
:102FF0001C19206220481818406A01248C40204384
:103000001D4C1C19606211E01B481818006A01244D
:103010008C40A043184C1C19206217481818446AA9
:10302000012088408443144818184462D07800284E
:1030300009D111481818C06A01248C40A0430E4CD5
:103040001C19E06208E00C481818C06A01248C4082
:103050002043094C1C19E062094880680124E403FC
:10306000A0431479E4030125ED032C402043044CD4
:10307000A060002030BD0000000D0240000C0240A6
:10308000000F024010B50346024818188C00025188
:10309000002010BD000C0240024605481018C06810
:1030A00001238B401843024BD318D860002070478F
:1030B000000D02400246024810188161002070474E
:1030C000000D0240024605481018006901238B409C
:1030D0001843024BD318186100207047000D0240BE
:1030E00001460548006840084000CA07D20F104357
:1030F000014A106000207047000F0240FFB581B008
:1031000006460A9F7EE0387880287ADB002000900F
:103110006DE02221009848433D49085C3978884297
:1031200061D1222100984843394940184078797884
:10313000884258D1002554E0002423E02221009841
:10314000484333494018801C6900405C802121417C
:103150000840002808D0029A521991B2321990B250
:10316000039A00F0F9FC0BE004990398884207D019
:10317000029A521991B2321990B2049A00F0ECFC02
:10318000601CC4B2082CD9DB002426E02221009860
:1031900048431F494018801C6900491C405C80213D
:1031A00021410840002809D0029A521991B23219DF
:1031B000083290B2039A00F0CFFC0CE00499039817
:1031C000884208D0029A521991B23219083290B24C
:1031D000049A00F0C1FC601CC4B2082CD6DB681C49
:1031E000C5B2102DA8DB0098401C80B200900B994E
:1031F000009888428DDBBF1C3046103086B201E05B
:10320000FFE77F1C3878002800D07CE705B0F0BDD0
:103210005ADF0000FFB581B006460F46B1E00A98BC
:10322000007880287EDB002000909BE04A210098F7
:1032300048435749095C0A980078814273D14A2172
:10324000009848435249401841780A984078814292
:10325000F4D100257FE0002422E04A210098484371
:103260004B494018801C69006918405C802121414D
:103270000840002807D07A1991B2321990B2039A07
:1032800000F06AFC0AE004990398884206D07A1993
:1032900091B2321990B2049A00F05EFC601CC4B284
:1032A000082CDADB002425E04A21009848433849FD
:1032B0004018801C69006918491C405C802121412C
:1032C0000840002808D07A1991B23219083290B219
:1032D000039A00F041FC0BE004990398884207D060
:1032E0007A1991B23219083290B2049A00F034FC83
:1032F000601CC4B2082CD7DB002428E04A210098C7
:10330000484323494018801C69006918891C405CA7
:1033100080212141084000280BD07A1991B232193E
:10332000103201E02AE019E090B2039A00F014FC98
:103330000BE004990398884207D07A1991B23219A8
:10334000103290B2049A00F007FC601CC4B2082C42
:10335000D4DB681CC5B2182D00DA7CE70098401C4D
:1033600080B200900B990098884200DA5EE70A98D4
:10337000801C0A903046183086B202E00A98401C41
:103380000A900A980078002800D048E705B0F0BD00
:1033900084E1000008B50020009000BF00980028DC
:1033A000FCD008BD1CB5002000F08EFB0020C043FF
:1033B0008D49088000208D4908808D4908808D49FD
:1033C00008808D4908608D4908608D4908808D49C5
:1033D00008808D4908600A208CA100238C4A009146
:1033E00001901946B820FFF715FF0A2089A1002394
:1033F000874A0091019019469C20FFF70BFF8648F1
:103400007949088085A010210B4650220091019037
:103410003221142000F05BFE0020C0437249088076
:103420007D4808807FA010210B465022009101901A
:1034300064214B2000F04BFE0020C0436A49088005
:1034400004207AA10023744A009101903221822045
:10345000FFF754FE78A028210B46D222009101905C
:103460005021822000F033FE062074A100236A4A16
:10347000009101906421C820FFF740FE66485A4938
:1034800008806FA010210B4650220091019064210A
:10349000CF2000F01CFE0020C043534908800A20C2
:1034A00063A100235C4A009101908C211420FFF756
:1034B00025FE062061A10023574A00910190B92101
:1034C0005A20FFF71BFE5448474908805CA0102192
:1034D0000B46502200910190B921612000F0F7FDC8
:1034E0000020C043404908800A2056A100234A4AD0
:1034F000009101908C218220FFF700FE46483A4956
:10350000088052A010210B46502200910190B92151
:10351000C52000F0DCFD0020C043334908801420A2
:103520004BA100233A4A00910190E621FFF7E6FD06
:103530004A482D4908804AA010210B46502200918C
:103540000190FF210531052000F0C1FD46A01021AA
:103550000B46502200910190FF2105314B2000F0D5
:10356000B6FD43A010210B46502200910190FF218F
:103570000531A02000F0ABFD0020C0431A490880AF
:10358000254808803CA010210B4650220091019054
:10359000FF210A31282000F09AFD0020C043124983
:1035A00008801D4808801FA010210B465022009162
:1035B0000190FF210A316E2000F089FD0020C043F8
:1035C000094908801448088016A010210B46502293
:1035D00000910190FF210A31C32000F078FD002006
:1035E000C043014908801CBD2200002024000020A7
:1035F000300000203200002034000020380000207D
:103600003C0000203E00002040000020CEE90000E9
:10361000FFFF0000C6E2000055AD0000504D322E05
:103620003500000075672F6D33000000C8CBCCE576
:10363000CEC2B6C80000000030303000A1E3000068
:1036400043000000CAAAB6C8000000002552480086
:10365000D3D0BAA6C6F8CCE5000000001FF80000E1
:1036600065434F320000000054564F4300000000F5
:103670004843484F0000000070706D0010B50821ED
:103680004020FFF7DBFB00F002F909214020FFF7A3
:10369000D5FB00F0FCF808214020FFF713FD00F0F7
:1036A000F6F808214020FFF7C9FB00F0F0F810BD44
:1036B0001CB50521684603F0B3FC01211C2001F074
:1036C000EBFD0021684601700121C17081706A46DE
:1036D00008214020FFF730FC6A4609214020FFF70F
:1036E0002BFC1CBD10B508214020FFF7A7FB00F004
:1036F000CEF809214020FFF7E5FC00F0C8F80821CA
:103700004020FFF7DFFC00F0C2F808214020FFF75F
:1037100095FB00F0BCF810BD70B508250024092108
:103720004020FFF7CFFC15E06006040E0821402082
:10373000FFF784FB00F0ABF808214020FFF7C2FC44
:1037400000F0A5F809214020FFF7A6FB002801D0D2
:10375000012004432846691ECDB20028E4D1082187
:103760004020FFF76BFB204670BD70B5044608256E
:103770001CE008214020FFF761FB00F088F8802062
:103780002040002804D009214020FFF79BFC03E0E3
:1037900009214020FFF752FB6006040E00F077F885
:1037A00008214020FFF78EFC00F071F82846691EC2
:1037B000CDB20028DDD108214020FFF73FFB70BDCE
:1037C00010B509214020FFF77DFC08214020FFF7BC
:1037D00079FC00F05CF809214020FFF75DFB002830
:1037E00000D110BD09214020FFF728FB00F04FF861
:1037F00009214020FFF750FB002801D00020F0E70E
:1038000009214020FFF71AFB00F041F80120E8E70A
:1038100010B508214020FFF711FB00F038F809210E
:103820004020FFF70BFB00F032F808214020FFF7A3
:1038300049FC00F02CF809214020FFF743FC00F080
:1038400026F810BD10B508214020FFF7F7FA00F068
:103850001EF809214020FFF735FC00F018F8082178
:103860004020FFF72FFC00F012F809214020FFF75D
:1038700013FB002805D008214020FFF7DFFA0020C5
:1038800010BD08214020FFF7D9FA0120F8E73220C7
:1038900001E0411EC8B20028FBD1704710B50020DE
:1038A000FFF70EFB10BD10B50120FFF709FB10BD9F
:1038B00010B50220FFF704FB10BD10B50320FFF781
:1038C000FFFA10BD10B50020C046C04610BD10B5AF
:1038D000002002F035F810BD10B5002002F083FB87
:1038E00010BD10B5012002F07EFB10BD10B5002008
:1038F000C046C04610BD10B50120C046C04610BD30
:1039000010B50020C046C04610BD10B50120C0460D
:10391000C04610BD10B50020C046C04610BD10B551
:103920000120C046C04610BD10B5002002F038F995
:1039300010BD10B5012002F033F910BD10B5022002
:1039400002F02EF910BD10B50020C046C04610BDD3
:1039500010B50420C046C04610BD10B50520C046B5
:10396000C04610BD10B50620C046C04610BD10B5FB
:103970000020C046C04610BD10B50020C046C0465D
:1039800010BD10B50020C046C04610BD10B50020C7
:10399000FDF708FF10BD10B50020C046C04610BDA1
:1039A00010B50020C046C04610BD10B50120C0466D
:1039B000C04610BD10B50020C046C04610BD10B5B1
:1039C0000020C046C04610BD10B50020FEF78AFD9D
:1039D00010BD10B50020C046C04610BD10B5002473
:1039E000FFF7EEFE002800D110BDA220FFF7BDFEBC
:1039F000FFF728FF002803D1FFF70AFF0020F3E7B5
:103A00005120FFF7B2FEFFF71DFF142003F074FBF7
:103A1000FFF7FEFE00BFFFF7D3FEA320FFF7A5FED2
:103A2000FFF710FF0028F6D0002407E0FFF774FE30
:103A300006490855FFF722FE601CC4B20C2CF5DDC8
:103A4000FFF750FEFFF7E4FE0120CDE780060020DF
:103A500010B5FFF7C3FF18480078FF281BD11648A0
:103A6000C078002817D1144840780002124989789C
:103A70000843124908801048007A00020E49497A2A
:103A800008430E4988810C48807A00020A49C97AA5
:103A900008430A49C88100F0F1FF002803D0084814
:103AA00000680649486000F071FF002803D005480F
:103AB00000680249886010BD800600209006002042
:103AC0004C0000205000002070B506460024094834
:103AD0000588408845430021084600F0DFF900F0E2
:103AE00023FC00BF03E0304600F0DEFB641CAC4268
:103AF000F9D370BD5406002010B50446002C10D137
:103B000013498871F0200880FF20413048802C2024
:103B1000C8712A2008722B20487205200D490870B0
:103B200010E001200A498871FF2041300880F02010
:103B300048802C20C8712A2008722B20487200204F
:103B4000044908700348007800F034F910BD000003
:103B5000540600202000002070B505460E4614468D
:103B60003146284600F09AF900F0DEFB204600F0CE
:103B70009BFB70BD10B500F0E9FB0A218020FFF728
:103B8000A1FAFE2000F067FBEF2000F064FB362076
:103B900000F061FB002000F035FB3A2000F05BFBF9
:103BA000052000F02FFBE82000F055FB122000F06C
:103BB00029FB222000F026FBE32000F04CFB012033
:103BC00000F020FB042000F01DFBA52000F043FBCB
:103BD000402000F017FB402000F014FBA42000F070
:103BE0003AFB442000F00EFB442000F00BFBAB201E
:103BF00000F031FB082000F005FBAA2000F02BFBB1
:103C0000882000F0FFFA882000F0FCFAAE2000F0D7
:103C100022FB0B2000F0F6FAAC2000F01CFB002089
:103C200000F0F0FAAF2000F016FB772000F0EAFA7F
:103C3000AD2000F010FB772000F0E4FA2A2000F01D
:103C40000AFB002000F0DEFA002000F0DBFA002082
:103C500000F0D8FAEF2000F0D5FA2B2000F0FBFAA4
:103C6000002000F0CFFA002000F0CCFA012000F094
:103C7000C9FA3F2000F0C6FA2C2000F0ECFAF02040
:103C800000F0E9FA022000F0BDFA022000F0BAFAD2
:103C9000002000F0B7FA092000F0B4FA132000F079
:103CA000B1FA0E2000F0AEFAF12000F0D4FA0120B3
:103CB00000F0A8FA022000F0A5FA002000F0A2FA15
:103CC0000F2000F09FFA1C2000F09CFA102000F05A
:103CD00099FAF22000F0BFFA0F2000F093FA0820C2
:103CE00000F090FA392000F08DFA042000F08AFAF2
:103CF000052000F087FA492000F084FAF32000F054
:103D0000AAFA112000F07EFA0A2000F07BFA412086
:103D100000F078FA032000F075FA032000F072FA40
:103D20004F2000F06FFAF42000F095FA0F2000F019
:103D300069FA182000F066FA162000F063FA1D20D8
:103D400000F060FA202000F05DFA0F2000F05AFA2F
:103D5000F52000F080FA052000F054FA112000F060
:103D600051FA112000F04EFA1C2000F04BFA1F20EF
:103D700000F048FA0F2000F045FA112000F06BFA2D
:103D8000782003F0E7F9292000F065FA2C2000F0F4
:103D900062FA0020FFF7B0FE10BD10B50246012008
:103DA00002E00346534318460B464C1EE1B2002B7B
:103DB000F7D110BD70B50546002400262B0002F097
:103DC0009CFB080507090B0D0F11131506250DE0C7
:103DD00007250BE0042509E0052507E0012505E09E
:103DE000002503E0032501E0022500BF00BF2B00F2
:103DF00002F083FB0805070A0D101316191C00BFFB
:103E000014E08020044311E0402004430EE0C02071
:103E100004430BE02020044308E06020044305E055
:103E2000A020044302E0E020044300BF00BF362688
:103E300000BF2146304600F07FFA1749087A00F0AB
:103E40000AFA002000F0DEF9002000F0DBF9124948
:103E50000988491E0902080C00F0D4F90E490978B6
:103E6000491EC8B200F0CEF90B49487A00F0F3F9C8
:103E7000002000F0C7F9002000F0C4F90649498885
:103E8000491E0902080C00F0BDF903498978491E52
:103E9000C8B200F0B7F970BD5406002070B50446F2
:103EA0000D460A49087A00F0D6F9201200F0AAF966
:103EB000E0B200F0A7F90549487A00F0CCF92812E1
:103EC00000F0A0F9E8B200F09DF970BD54060020A2
:103ED000FFB585B016461C46069803902046E217AB
:103EE000520F1218D210E3175B0F1B18DB10DB0008
:103EF0000194E31A01D0012300E00023D2182146E7
:103F0000E30F5B185B105A43D2B20292304620385E
:103F1000C6B2002576E00C2C05D10C2070433C493C
:103F20004018475D27E0102C04D130013949401872
:103F3000475D20E0142C05D11E20704336494018FF
:103F4000475D18E0182C05D12420704333494018F0
:103F5000475D10E0202C04D1B00131494018475D85
:103F600009E0282C05D1642070432E494018475D94
:103F700001E009B0F0BD002004903DE08020384011
:103F800000280AD006990598FFF788FF00F0CCF9C1
:103F90002548008800F088F90CE00E98002809D127
:103FA00006990598FFF77AFF00F0BEF91F480088D0
:103FB00000F07AF97806070E0698401C80B2069049
:103FC0001B4841880698814200DCD2E70399069895
:103FD000401AA0420CD1039806900598401C80B26C
:103FE0000590134801880598814200DCC1E706E08E
:103FF0000498401CC0B2049004980828BEDB00BF9F
:10400000681CC5B20298854285DB00BFB1E700009D
:10401000007F000074830000648900008694000023
:10402000E2A10000A2B9000022000020240000202C
:1040300054060020FFB585B01E460E9C002004905B
:10404000002540E0701B401EC1B20A20FFF7A5FE0C
:10405000014602900798FCF75BF80A210390FCF7F1
:1040600057F80F460498002817D1701EA84214DD97
:10407000002F10D1002003940090E00F0019401091
:1040800068430599401880B2234620220290069981
:10409000FFF71EFF15E0012004900020039400901C
:1040A000E00F0019401068430599401880B2029053
:1040B00038463030C2B2234606990298FFF708FF0F
:1040C00000BF681CC5B2B542BCDB09B0F0BDFFB58E
:1040D00083B004460E460D9F0C9DE0B202900598F9
:1040E000001980B205900698801980B2069018E0F9
:1040F0000598844202DB029C701986B206988642BB
:1041000000DB14E0002000903A782B463146204630
:10411000FFF7DEFE2846E90F0918491009198CB28D
:104120007F1C38787E2802DC38782028E0DA00BF4F
:1041300007B0F0BDFFB585B006461F460E9C0020B7
:10414000039000255AE0781B401EC1B20A20FFF7F9
:1041500024FE014601900798FBF7DAFF0A2102903E
:10416000FBF7D6FF04910398002830D1781EA842AF
:104170002DDD0498002828D180210F9808400028C0
:1041800011D00F98C007C00F02940090E00F0019E3
:1041900040106843801980B223463022019006996E
:1041A000FFF796FE10E00F98C007C00F0294009032
:1041B000E00F001940106843801980B22346202286
:1041C00001900699FFF784FE16E0012003900F98F6
:1041D000C007C00F02940090E00F00194010684320
:1041E000801980B2019004983030C2B223460699FB
:1041F0000198FFF76DFE00BF681CC5B2BD42A2DB8F
:1042000009B0F0BD70B504460F210020FEF716FE80
:104210000C218020FEF756FF0B218020FEF70EFEBA
:104220004020FEF731FE3F210902084005462046A6
:104230002843000422462A43D2431043014640202B
:10424000FEF738FF0B218020FEF73CFF0F210020F6
:10425000FEF738FF70BD70B504460F210020FEF751
:10426000EDFD0C218020FEF7E9FD0B218020FEF7FB
:10427000E5FD4020FEF708FE3F2109020840054603
:1042800020462843000422462A43D24310430146D5
:104290004020FEF70FFF0B218020FEF713FF0F21B8
:1042A0000020FEF70FFF70BD70B504460F210020FF
:1042B000FEF7C4FD0C218020FEF704FF0A218020B8
:1042C000FEF700FF4020FEF7DFFD3F210902084016
:1042D000054620122843000422122A43D2431043E9
:1042E00001464020FEF7E6FE0B218020FEF7A6FDEA
:1042F0000B218020FEF7E6FE2046284300042246DC
:104300002A43D243104301464020FEF7D3FE0B213F
:104310008020FEF793FD0B218020FEF7D3FE0F21B6
:104320000020FEF7CFFE70BD10B50249C879FFF737
:1043300092FF10BD5406002070B505460C46284675
:10434000FFF789FF2046FFF75DFF70BD1FB5052110
:10435000684602F065FE01211C2000F09DFF00214F
:104360006846017041708170C170012101716A4617
:104370000721C020FEF7E0FD0721C020FEF75EFD0B
:104380006A460F210020FEF7D7FD6A460A218020E9
:10439000FEF7D2FD6A460B218020FEF7CDFD6A466E
:1043A0000C218020FEF7C8FD052102A802F038FE8E
:1043B00000216846017241728172C172017302AAC2
:1043C0004020FEF7B9FD02AA01214020FEF7B4FD0E
:1043D00002AA02214020FEF7AFFD02AA03214020DD
:1043E000FEF7AAFD02AA04214020FEF7A5FD02AABD
:1043F00005214020FEF7A0FD02AA06214020FEF77D
:104400009BFD02AA07214020FEF796FD1FBD00007C
:10441000FEB53F4D4B2676012327BF013D4C02F0F0
:104420001BFF012002F096FE02F016FF012002F0B1
:1044300091FE39480088A0425EDD37480088344943
:10444000A031884258DA02F007FF012002F082FE14
:1044500002F002FF012002F07DFE2F480088A842F2
:104460000ADD0A202DA100232D4A00910190194652
:10447000D020FEF7CFFE38E027480088B0420EDD9E
:1044800025480088A8420ADA0A2026A10023244AE7
:10449000009101901946D020FEF7BCFE25E01E4891
:1044A0000088B8420EDD1C480088B0420ADA0A20B3
:1044B0001DA100231A4A009101901946D020FEF751
:1044C000A9FE12E014480088A0420EDD12480088C0
:1044D000B8420ADA0A2015A100231F22D202009155
:1044E00001901946D020FEF795FE07210020FEF727
:1044F000E9FD02F0B1FE09E007480088A04205DAB4
:1045000005480088002801DD02F09AFDFEBD00008C
:10451000EC0900009808000074000020C8FE0000AC
:10452000FFFF0000B7A10000D2BC0000C1E3000003
:10453000014601200A78002A04D0144A1269102387
:104540001A4303E0114A126910239A430F4B1A6170
:104550004A78002A04D01A46126904231A4303E059
:104560000A4A126904239A43084B1A618A78002A7E
:1045700004D01A46126902231A4303E0034A12695F
:1045800002239A43014B1A610020704700ED00E0BE
:1045900030BF70471CB501211C2000F07DFE0121B9
:1045A0001F2000F079FE0120FEF7A2F9002000F0A4
:1045B00091FE002168460170042141700321817041
:1045C0000C21C17000F0CCFD04216846017100216E
:1045D0004171817101A800F0F7FB1CBDF8B50446DC
:1045E00025786078FCF75BF8074607493846FBF703
:1045F0007AFE07462846FCF752F839460090FBF74A
:10460000DCFD06463046F8BD0000C84200200246E8
:10461000401C9100644A5158644AD1600246401CD3
:104620009100614A5158614A11620246401C910052
:104630005D4A51585D4A51620246401C91005A4AF7
:1046400051585A4AD1620246401C9100564A51586C
:10465000564A91600246401C9100534A5158534AB1
:1046600011600246401C91004F4A51584F4A403257
:10467000D1600146421CD0B289004B4A51584B4A86
:10468000403211620146421CD0B28900464A51585C
:10469000464A403251620146421CD0B28900424A29
:1046A0005158424A4032D1620146421CD0B2890080
:1046B0003D4A51583D4A403291600146421CD0B2B9
:1046C0008900394A5158394A403211600146421C2A
:1046D000D0B28900344A5158344A8032D160014600
:1046E000421CD0B28900304A5158304A803211629F
:1046F0000146421CD0B289002B4A51582B4A8032C5
:1047000051620146421CD0B28900274A5158274ABB
:104710008032D1620146421CD0B28900224A5158EF
:10472000224A803291600146421CD0B289001E4A62
:1047300051581E4A803211600146421CD0B2890095
:10474000194A5158194AC032D1600146421CD0B2B0
:104750008900154A5158154AC03211620146421C5F
:10476000D0B28900104A5158104AC03251620146F5
:10477000421CD0B289000C4A51580C4AC032D16256
:104780000146421CD0B28900074A5158074AC0323C
:1047900091600146421CD0B28900034A5158034A35
:1047A000C032116070470000D8070020000D0240A1
:1047B00010B5012001F0A0FC0449054A1278885484
:1047C00003480078401C0249087010BDA006002074
:1047D0007200002070B506460C461546FEF7F0FF45
:1047E000002800D170BD8020FEF7BFFFFFF72AF838
:1047F000002803D1FFF70CF80020F3E73046FEF75E
:10480000B4FFFFF71FF8FEF7DBFF8120FEF7ADFFD7
:10481000FFF718F80CE0FEF77FFF2870012C02D19B
:10482000FEF760FF01E0FEF729FF6D1C601E84B2F9
:10483000002CF0D1FEF7ECFF0120D3E770B5054660
:104840000C46FEF7BDFF002800D170BD8020FEF7AA
:104850008CFFFEF7F7FF002803D1FEF7D9FF0020F9
:10486000F3E72846FEF781FFFEF7ECFF2046FEF750
:104870007CFFFEF7E7FFFEF7CBFF0120E5E7000036
:1048800010B53E493E4800F09DF93D4800783C494E
:10489000497840183A49C978401839490979401887
:1048A0003749497940183649897940183449C979D6
:1048B0004018002850DD324843780122002100F0E2
:1048C00059F900284CD02E48C3780122022100F06B
:1048D00051F9002844D02A4843790122042100F0EC
:1048E00049F900283CD02648C3790122062100F06E
:1048F00041F9002834D0214883780222002100F0B9
:1049000039F900282CD01D4843790222032100F0F8
:1049100031F9002824D01948C078000617490979D0
:104920000904401816490978090240181449897881
:104930004018144908601248007900061049897926
:10494000090440180D490978090240180B494978B3
:1049500040180D49086003E00849094800F032F9A1
:10496000642002F0F7FB3A2000F0B6F9002801D0ED
:10497000002400E00124204610BD00005C0000205F
:10498000540000206400002068000020F0B585B0CD
:10499000002400200490FEF713FF002801D105B089
:1049A000F0BD8020FEF7E1FEFEF74CFF002803D1AA
:1049B000FEF72EFF0020F2E7F520FEF7D6FEFEF709
:1049C00041FF142002F098FBFEF722FF00BFFEF724
:1049D000F7FE8120FEF7C9FEFEF734FF0028F6D06F
:1049E000002407E0FEF798FE04A90855FEF746FEEE
:1049F000601CC4B2032CF5DDFEF774FEFEF708FF61
:104A00006846017C407C09186846807C08180028AC
:104A100028DD6846837C0222002104A800F0AAF861
:104A200000281FD06946097C0A026946497C511852
:104A30000E4A11400846FBF727FE0746FBF79CFE8F
:104A4000054600220A4BFBF73FFD0022094B01916E
:104A50000090FBF787FC03910290FBF7C9FE064923
:104A6000086001E000209AE7012098E7F0FF0000CD
:104A700000405F3F000018C050000020F0B585B036
:104A8000002400200490FEF79BFE002801D105B011
:104A9000F0BD8020FEF769FEFEF7D4FE002803D1AA
:104AA000FEF7B6FE0020F2E7F320FEF75EFEFEF70B
:104AB000C9FE142002F020FBFEF7AAFE00BFFEF79D
:104AC0007FFE8120FEF751FEFEF7BCFE0028F6D0E7
:104AD000002407E0FEF720FE04A90855FEF7CEFDEE
:104AE000601CC4B2032CF5DDFEF7FCFDFEF790FE62
:104AF0006846017C407C09186846807C08180028BC
:104B000028DD6846837C0222002104A800F032F8E8
:104B100000281FD06946097C0A026946497C511861
:104B20000E4A11400846FBF7AFFD0746FBF724FE8F
:104B300005460B4A0B4BFBF7C7FC0B4A0B4B01918D
:104B40000090FBF70FFC03910290FBF751FE084920
:104B5000086001E000209AE7012098E7FCFF0000D0
:104B6000D7A3703D0AF7653FCDCCCCCCCC6C47C009
:104B70004C000020FFB50C461546002600212246B9
:104B800016E00098805C414008260DE08020084037
:104B9000002805D04800FF2732377840C1B201E035
:104BA0004806010E701EC6B2002EEFDC501CC2B2C9
:104BB00060199042E5DC994202D1012004B0F0BDB9
:104BC0000020FBE770B506460D460824FEF7F8FD09
:104BD000002800D170BD8020FEF7C7FDFEF732FE31
:104BE000002803D1FEF714FE0020F3E7FA20FEF7B9
:104BF000BCFDFEF727FE0F20FEF7B7FDFEF722FEF5
:104C0000FEF7DEFD002800D1E4E78120FEF7ADFDD0
:104C1000FEF718FE002803D1FEF7FAFD0020D9E7C1
:104C20000CE0FEF779FD3070012C02D1FEF75AFD41
:104C300001E0FEF723FD761C601EC4B2002CF0D10B
:104C4000FEF7E6FD0624FEF7BBFD002800D1C1E714
:104C50008020FEF78AFDFEF7F5FD002803D1FEF760
:104C6000D7FD0020B6E7FC20FEF77FFDFEF7EAFD4A
:104C7000C920FEF77AFDFEF7E5FDFEF7A1FD00284D
:104C800000D1A7E78120FEF770FDFEF7DBFD0028CD
:104C900003D1FEF7BDFD00209CE70CE0FEF73CFDD4
:104CA0002870012C02D1FEF71DFD01E0FEF7E6FCA5
:104CB0006D1C601EC4B2002CF0D1FEF7A9FD0120CE
:104CC00088E708B5002000906A460121E720FFF739
:104CD00081FD6846007808BD10B504462146E620EF
:104CE000FFF7ACFD1E2002F035FAFFF7EAFFA04205
:104CF00001D1012010BD0020FCE7000010B5072104
:104D0000C020FEF79BF82E48C0682E4908602C484A
:104D1000006A48602A48406A88602948C06AC860BA
:104D20002748806808612648006848612448403068
:104D3000C068886122484030006AC861204840301D
:104D4000406A08621E484030C06A48621C484030D1
:104D5000806888621A4840300068C862184880300D
:104D6000C068086316488030006A48631448803081
:104D7000406A886312488030C06AC8631048803037
:104D8000806808640E488030006848640C48C03071
:104D9000C06888640A48C030006AC8640848C030E7
:104DA000406A08650648C030C06A48650448C0309B
:104DB000806888650248C0300068C86510BD000082
:104DC000000D0240D807002070B504460025207869
:104DD000030001F092FB0504050C10181C0018E0FC
:104DE000032000F00DFB032000F0D4FA11E00320B3
:104DF00000F0BEFA0DE00321084600F00FFB03208F
:104E000000F0D8FA05E0072000F034FA01E00425AC
:104E100000BF00BF2078012100F00CF8207800F0DE
:104E2000D9FA607800F070F9A07800F083F928468C
:104E300070BD000070B505460C46002601F028FB49
:104E4000002C01D0012000E0002004462B0001F0DE
:104E500054FB050417394D74880044480068400825
:104E60004000E107C90F08434049086000BF002C1B
:104E700005D03E48C0680005C00F0028F7D072E09A
:104E80003B48C06840084000401C3949C86008469B
:104E9000C06802218843801C3549C86033480068D7
:104EA0000221884361000222114008432F49086013
:104EB00000BF002C05D02D4800694006C00F002817
:104EC000F7D050E02948006804218843A10004225B
:104ED000114008432549086000BF002C05D0234835
:104EE0004069C004C00F0028F7D03CE0204840389B
:104EF000C06801218903884340181D494039C860B2
:104F00000846C0680121C903884340181849403940
:104F1000C8601648006808218843E1000822114053
:104F200008431249086000BF002C05D00F48806973
:104F30004006C00F0028F7D015E00C48006810218B
:104F4000884321011022114008430849086000BF2E
:104F5000002C05D00548C06B4003C00F0028F7D0D7
:104F600001E0042600BF00BF304670BD00200040B5
:104F7000C00D024030B589B000241422564904A85F
:104F8000FBF7F0F8544814300068039000200090BC
:104F90000190029051480188684601814F4841883C
:104FA0006846C1804D488188684681804B48C188E9
:104FB0006846418049482030018868460180484859
:104FC00000680006450F2B0001F097FA05042E300B
:104FD0003E4178004248C0684005400D6946098955
:104FE000884201D1089C1EE03D48C0684005400D44
:104FF0006946C988884201D1079C14E03848C068D6
:105000004005400D69468988884201D1069C0AE026
:105010003348C0684005400D69464988884201D13F
:10502000059C00E0049C4BE02E4C49E0684600885B
:105030002B4949698905890D884202D16846C4898E
:1050400001E0684684893BE00124E40338E0244819
:10505000C06B8007800F032829D16846008920494A
:10506000C9684905490D884201D1089C20E068467D
:10507000C0881B49C9684905490D884201D1079C70
:1050800016E0684680881649C9684905490D884276
:1050900001D1069C0CE0684640881149C968490561
:1050A000490D884201D1059C02E0049C00E00D4CB2
:1050B0000B48C06BC005000F444301E0002400BF53
:1050C00000BF074800684005410F2046C84004461D
:1050D000204609B030BD000014E80000000C1000AC
:1050E000002000400048E80110B50024FFF742FF0F
:1050F000044604480068C004810F2046C8400446A6
:10510000204610BD0020004070B50446002501F087
:10511000BFF90748006807210902884321020722D6
:1051200012021140084302490860284670BD000081
:105130000020004070B50446002501F0A9F9074899
:1051400000680321C9028843E1020322D202114010
:10515000084302490860284670BD00000020004056
:105160001EB50146002200200090019002903D48AB
:105170000388684603813B4843886846C3803948B2
:105180008388684683803748C38868464380887828
:1051900003282DD168460089334BDB685B055B0D26
:1051A000984202D1C878022820DC6846C0882E4B7D
:1051B000DB685B055B0D984202D1C878022815DCDC
:1051C00068468088284BDB685B055B0D984202D1FE
:1051D000C87803280ADC68464088234BDB685B05F7
:1051E0005B0D98420CD1C878062809DD06201EBD4B
:1051F000C8781E4B58431E4B984201D90620F6E74B
:105200001948C06B03235B0398430B785B030324AB
:10521000640323401843144BD8631846C06B1C2307
:1052200098434B789B001C24234018430E4BD863B3
:105230001846C06BFF23E1339843CB785B01FF2412
:10524000E13423401843084BD8631846C06B8008EC
:1052500080008B789B079B0F1843034BD863104645
:10526000C5E70000000C1000002000400048E801E5
:10527000006CDC0210B501460020064AD26B072301
:10528000DB039A43CB030724E40323401A43014B77
:10529000DA6310BD0020004010B50246002000294E
:1052A00001D0012300E000231946002907D0084B54
:1052B0001B6A012494402343054C236206E0044BFF
:1052C0001B6A01249440A343014C236210BD0000DB
:1052D0000020004010B5014600200B0001F00DF940
:1052E0000504101C283440001F4B1B895A05520D21
:1052F0001E4BDB68DB0ADB0213431C4CE36031E02E
:10530000194BDB885A05520D184BDB68DB0ADB02B0
:105310001343164CE36025E0134B9B885A05520D4E
:10532000124BDB68DB0ADB021343104CE36019E02D
:105330000D4B5B885A05520D0C4BDB68DB0ADB0218
:1053400013430A4CE3600DE0074B1B885A05520DCE
:10535000064BDB68DB0ADB021343044CE36001E02D
:10536000042000BF00BF10BD000C10000020004052
:1053700010B501460020064A526903239B029A4356
:105380008B020324A40223401A43014B5A6110BD2F
:105390000020004010B501460020054A1269302364
:1053A0009A430B01302423401A43014B1A6110BD6C
:1053B0000020004010B501460020054A92693023C4
:1053C0009A430B01302423401A43014B9A6110BDCC
:1053D0000020004070B504460025264601F058F82C
:1053E00006480068E02188437101E022114008432B
:1053F0000249086000F02CF8284670BD00200040EB
:1054000001460020044A1269920892008B079B0F04
:105410001A43014B1A6170470020004030B5024624
:1054200000200A4B9B690C24A34394000C252C40BC
:105430002343064CA36123469B699B089B008C0772
:10544000A40F2343014CA36130BD000000200040A5
:1054500010B5FFF78FFD0149086010BD0000002066
:1054600010B5074909894805400D0649C968C90AA8
:10547000C9020143034AD160FFF7EAFF10BD0000F3
:10548000000C10000020004010B504461D480078B4
:1054900000282DD01C4800881E2829DD0F2140201F
:1054A000FDF710FE1E2001F027FE0F214020FDF722
:1054B000C5FC052001F04EFE0DE00E214020FDF759
:1054C00001FE0B2001F018FE0E214020FDF7B6FC76
:1054D0000B2001F011FE2046611ECCB20028ECD159
:1054E0000E214020FDF7EEFD7D20000101F032FE8F
:1054F0000E214020FDF7A2FC0F214020FDF79EFC6D
:1055000010BD00001900002044000020FEB5FDF78A
:10551000F3FBFCF713FA0546FBF76EFF044627463C
:105520006F492046FBF780F916D23F2040016D49B4
:1055300008806DA028210B46D222009101905021B5
:105540008220FEF7C4FD0020C04366490880C820C1
:1055500001F000FE0020FEBD2046FBF70DF90546D8
:10556000634A644BFBF730F916D21F20C0025D4935
:10557000088061A028210B46D22200910190502181
:105580008220FEF7A4FD0020C04356490880C820B1
:1055900001F0E0FD0020DEE751492046FBF74EF91F
:1055A0007ED857492046FBF73FF979D24C4920462F
:1055B000FBF744F911D82046FBF7DEF805464C4AC4
:1055C0005242504BFBF7ECF807D20020FFF75CFF8C
:1055D0003F204001434908802FE02046FBF7CCF8EC
:1055E0000546434A5242474BFBF7EEF810D8204697
:1055F000FBF7C2F80546444A444BFBF7D1F807D203
:105600000020FFF741FF1F20C0433649088014E007
:105610002046FBF7B1F805463B4A3C4BFBF7D4F874
:105620000BD837492046FBF7FFF806D20120FFF7D9
:105630002BFF1F20C0022B49088035A028210B46D4
:10564000D2220091019050218220FEF740FD384681
:10565000FBF759F80546282002232A4650210090DE
:105660008220FEF7E7FC2CA028210B46D2220091D5
:1056700001905021AD20FEF72AFD28493846FAF75F
:10568000F5FD0646FBF73FF80546282001232A468C
:1056900050210090B220FEF7CDFC0020C04300E076
:1056A0001CE0104908800A201DA100231D4A00911A
:1056B00001906421C820FDF721FD1A48094908809E
:1056C00019A010210B465022009101906421CF2097
:1056D000FEF7FDFC0020C0430249088020463AE75F
:1056E00000000C42220000204C6F772020000000B8
:1056F0003333333333734540486967682000000013
:1057000000002842CC0C42409A99999999994240BC
:1057100020202020202020002E000000000020411A
:10572000A1E3000055AD00004300000030B585B096
:105730001421684601F074FC01210820FFF7ACFD3C
:1057400000216846017041710621C17001218171FB
:105750000021017181704170194802906946002052
:10576000FCF7D4FA1749096808096421FAF7D0FC54
:105770000021C943081A84B221460020FCF74AFAE6
:105780001049096808096421FAF7C2FC0021C943DD
:10579000081A85B229460020FCF76CFA0021084659
:1057A000FCF71CFA0020FCF7A3FA012203210E20CB
:1057B000FCF7A4FE0020FCF78DFA05B030BD000018
:1057C000C95700000000002010B500210846FCF772
:1057D00013FA012810D109480088401C07490880A5
:1057E000084600880649884202DD002003490880F7
:1057F00000210846FCF7F2F910BD0000440000202B
:10580000FAFF000010B586B0082104A801F008FCDA
:105810000521684601F004FC01211C20FFF73CFD36
:1058200001210B20FFF738FD0121684601706A460F
:1058300008210020FDF780FB022208210020FDF74F
:1058400021FC012168460174002181744174C174F6
:105850001548059004A800F069F906216846017210
:10586000002141720621417302A800F089F801204D
:1058700000F0E4F80024204600F074F8002000F066
:1058800049F8022000F046F8012203210520FCF728
:1058900035FE002000F02AF9022000F027F900F080
:1058A00019F906B010BD0000AD58000010B5002079
:1058B00000F03AF8012807D112480088401C11492D
:1058C0000880002000F026F8022000F02DF80128C2
:1058D00017D100F0ABF80C4908800A480088000492
:1058E0000988401809490860094908480068FAF71A
:1058F0000FFC06490860002002490880022000F0E1
:1059000009F810BD6E000020700000202C0000205F
:10591000A08601000146002001228A40D243014BAB
:105920005A6170470058004001460020034B1A6935
:105930001346CB40D807C00F704700000058004006
:1059400010B50446002C07D105480068002802D095
:1059500003480068804700E000BF00BF10BD0000A2
:105960001406002001460020044A5268120C12045A
:105970008BB21A43014B5A60704700000058004038
:1059800010B501460020284A9269E0239A430B781B
:105990005B01E02423401A43234B9A611A46926923
:1059A000DB149A434B78DB020124E40223401A43C0
:1059B0001D4B9A611A4692699B149A438B781B037C
:1059C000640023401A43184B9A611A46D269520068
:1059D0005208CB78DB07DB0FDB071A43124BDA6187
:1059E0001A46D26907231B079A430B791B07072422
:1059F000240723401A430C4BDA611A46D269D208B5
:105A0000D2004B795B075B0F1A43074BDA611A46EA
:105A1000D26970239A438B791B01702423401A4367
:105A2000014BDA6110BD000000580040002002491F
:105A3000C96B88B270470000005800400146002042
:105A4000002906D0012912D002291FD003293CD1F8
:105A50002BE01F4AD268FF2301339A431C4BDA60C4
:105A60001A46D2685B159A43194BDA602EE0184A41
:105A7000D268FF2301339A43D218154BDA601A46D5
:105A8000D2685B159A43124BDA601FE0104AD26865
:105A9000FF2301339A430E4BDA601A46D2685B1536
:105AA0009A43D2180A4BDA6010E0094AD268FF2301
:105AB00001339A43D218064BDA601A46D2685B1556
:105AC0009A43D218024BDA6000E000BF00BF704773
:105AD0000058004000200449C96849084900491C91
